:100000000C942A000C9447000C9447000C94470071
:100010000C9447000C9447000C9447000C94470044
:100020000C9447000C9447000C9447000C94470034
:100030000C9447000C94A6010C9447000C947C018E
:100040000C9447000C9447000C9447000C94470014
:100050000C94470011241FBECFE5D8E0DEBFCDBF12
:1000600010E0A0E6B0E0E6EAF4E002C005900D92F0
:10007000A036B107D9F710E0A0E6B0E001C01D92AC
:10008000A23EB107E1F70E9449000C9451020C9482
:100090000000DF93CF9300D000D0CDB7DEB7E7E309
:1000A000F0E08FEF808378940E946C000E94E6015C
:1000B000FDCFDF93CF93CDB7DEB71092A1001092A2
:1000C0006200109261001092A2001092A0001092A3
:1000D0009F00CF91DF910895DF93CF93CDB7DEB727
:1000E000E0E4F0E086E88083EAE2F0E088ED8083F7
:1000F000E0E4F0E01082E9E2F0E087E680830E942D
:100100005900CF91DF910895DF93CF93CDB7DEB73C
:100110008091A0008823E1F0ACE2B0E08091A200E1
:10012000882F90E0FC01ED55FF4F80818C938091EA
:10013000A2008F5F8093A2008091A00081508093E5
:10014000A0008091A2008C3338F01092A20004C06D
:100150001092A20010926100CF91DF910895DF9379
:10016000CF93CDB7DEB78091A100882F90E0ECE26D
:10017000F0E02081FC01ED59FF4F20838091A10028
:100180008F5F8093A10080919F008F5F80939F007D
:100190008091A1008C3310F01092A100CF91DF91DB
:1001A0000895DF93CF9300D00F92CDB7DEB79B8336
:1001B0008A83198223C080916100882F90E0EA81B0
:1001C000FB812081FC01ED55FF4F20838A819B81BB
:1001D00001969B838A83809161008F5F8093610089
:1001E0008091A0008F5F8093A00089818F5F8983B9
:1001F000809161008C3310F010926100EA81FB81E4
:100200008081882319F089818C33A8F2EBE2F0E039
:100210008081882311F00E9484000F900F900F902E
:10022000CF91DF910895DF93CF930F92CDB7DEB7D3
:10023000898380916100882F90E0FC01ED55FF4F8C
:1002400089818083809161008F5F809361008091BC
:10025000A0008F5F8093A000809161008C3310F02C
:1002600010926100EBE2F0E08081882311F00E949F
:1002700084000F90CF91DF910895DF93CF930F9279
:10028000CDB7DEB7198280919F008823D1F080918D
:100290006200882F90E0FC01ED59FF4F8081898337
:1002A000809162008F5F80936200809162008C3346
:1002B00010F01092620080919F00815080939F0007
:1002C00004C0109262001092A10089810F90CF911A
:1002D000DF910895DF93CF93CDB7DEB780919F0074
:1002E000CF91DF910895DF93CF93CDB7DEB78091A3
:1002F000A000CF91DF9108951F920F920FB60F9239
:1003000011242F933F934F935F936F937F938F931A
:100310009F93AF93BF93EF93FF93DF93CF93CDB7AB
:10032000DEB70E948400CF91DF91FF91EF91BF91E2
:10033000AF919F918F917F916F915F914F913F917D
:100340002F910F900FBE0F901F9018951F920F9234
:100350000FB60F9211242F933F934F935F936F9398
:100360007F938F939F93AF93BF93EF93FF93DF930D
:10037000CF93CDB7DEB70E94AF00CF91DF91FF9151
:10038000EF91BF91AF919F918F917F916F915F910D
:100390004F913F912F910F900FBE0F901F90189586
:1003A000DF93CF9300D0CDB7DEB79A8389838EEFEA
:1003B0000E94130189819A810E94D1008FEF0E94CF
:1003C00013010F900F90CF91DF910895DF93CF939A
:1003D00000D00F92CDB7DEB70E946A01882309F4DE
:1003E0005AC00E943D01898380916000282F30E02F
:1003F0003B832A838A819B818130910561F12A8127
:100400003B81223031052CF48A819B81009761F079
:1004100040C02A813B812230310561F18A819B8174
:100420008330910581F135C08981813F39F481E0C4
:100430008093600089810E94130109C08981803FF7
:1004400031F483E08093600089810E9413018981E7
:100450008093E10020C089818093DF0089810E9420
:10046000130182E080936000E8E3F0E08091DF0018
:10047000808311C089818093E00089810E941301EB
:100480001092600008C089810E94130110926000E0
:1004900002C0109260000F900F900F90CF91DF91EB
:0604A0000895F894FFCF5F
:00000001FF
