:100000000C942A000C9447000C9447000C94470071
:100010000C9447000C9447000C9447000C94470044
:100020000C9447000C9447000C9447000C94470034
:100030000C9447000C94BF010C9447000C9495015C
:100040000C9447000C9447000C9447000C94470014
:100050000C94470011241FBECFE5D8E0DEBFCDBF12
:1000600010E0A0E6B0E0E6EDF3E002C005900D92EE
:10007000A836B107D9F710E0A8E6B0E001C01D929C
:10008000A63EB107E1F70E9449000C94E9010C94E7
:100090000000DF93CF9300D000D00F92CDB7DEB732
:1000A000E7E3F0E08FEF808378940E949A000E944B
:1000B0008C01882379F00E945F018983E8E3F0E0F6
:1000C0008981808380E690E067E00E94FF0089815B
:1000D0000E943A011A821B821C821D820BC08A81F7
:1000E0009B81AC81BD810196A11DB11D8A839B833B
:1000F000AC83BD838A819B81AC81BD818F3F2FEF13
:10010000920720E0A20720E0B2074CF3D0CFDF93A4
:10011000CF93CDB7DEB71092A8001092690010926D
:1001200068001092A9001092A7001092A600CF912B
:10013000DF910895DF93CF93CDB7DEB7E0E4F0E031
:1001400086E88083EAE2F0E088ED8083E0E4F0E096
:100150001082E9E2F0E087E680830E948700CF9179
:10016000DF910895DF93CF93CDB7DEB78091A700DD
:100170008823E1F0ACE2B0E08091A900882F90E004
:10018000FC01E655FF4F80818C938091A9008F5F21
:100190008093A9008091A70081508093A70080914F
:1001A000A9008C3338F01092A90004C01092A90065
:1001B00010926800CF91DF910895DF93CF93CDB770
:1001C000DEB78091A800882F90E0ECE2F0E020817B
:1001D000FC01E659FF4F20838091A8008F5F809338
:1001E000A8008091A6008F5F8093A6008091A80050
:1001F0008C3310F01092A800CF91DF910895DF9317
:10020000CF9300D000D0CDB7DEB79B838A836C83B9
:10021000198223C080916800882F90E0EA81FB81D9
:100220002081FC01E655FF4F20838A819B81019646
:100230009B838A83809168008F5F809368008091A0
:1002400068008C3310F0109268008091A7008F5FD7
:100250008093A70089818F5F898399818C8198170A
:10026000C8F20E94B2000F900F900F900F90CF91A4
:10027000DF910895DF93CF930F92CDB7DEB78983D7
:1002800080916800882F90E0FC01E655FF4F89813E
:100290008083809168008F5F809368008091A700C1
:1002A0008F5F8093A700809168008C3310F01092CC
:1002B00068000E94B2000F90CF91DF910895DF9304
:1002C000CF930F92CDB7DEB719828091A600882315
:1002D000D1F080916900882F90E0FC01E659FF4F32
:1002E00080818983809169008F5F8093690080910C
:1002F00069008C3310F0109269008091A600815043
:100300008093A60004C0109269001092A800898111
:100310000F90CF91DF910895DF93CF93CDB7DEB7E4
:100320008091A600CF91DF9108951F920F920FB692
:100330000F9211242F933F934F935F936F937F936B
:100340008F939F93AF93BF93EF93FF93DF93CF93DD
:10035000CDB7DEB70E94B200CF91DF91FF91EF9150
:10036000BF91AF919F918F917F916F915F914F91CD
:100370003F912F910F900FBE0F901F9018951F92D5
:100380000F920FB60F9211242F933F934F935F93C9
:100390006F937F938F939F93AF93BF93EF93FF934D
:1003A000DF93CF93CDB7DEB70E94DD00CF91DF9111
:1003B000FF91EF91BF91AF919F918F917F916F913D
:1003C0005F914F913F912F910F900FBE0F901F9013
:0603D0001895F894FFCF20
:0803D60043484152203A200087
:00000001FF
