:100000000C942A000C9447000C9447000C94470071
:100010000C9447000C9447000C9447000C94470044
:100020000C9447000C9447000C9447000C94470034
:100030000C9447000C94C4010C9447000C949A0152
:100040000C9447000C9447000C9447000C94470014
:100050000C94470011241FBECFE5D8E0DEBFCDBF12
:1000600010E0A0E6B0E0ECE0F4E002C005900D92F4
:10007000A037B107D9F710E0A0E7B0E001C01D92AA
:10008000AE3EB107E1F70E9449000C9404020C94C3
:100090000000DF93CF9300D000D0CDB7DEB7E7E309
:1000A000F0E08FEF808378940E948A0080E690E0F1
:1000B0000E94EE0119821A821B821C820BC0898168
:1000C0009A81AB81BC810196A11DB11D89839A8360
:1000D000AB83BC8389819A81AB81BC818F3F2FEF39
:1000E000920720E0A20720E0B2074CF3DFCFDF93B6
:1000F000CF93CDB7DEB71092B0001092710010927E
:1001000070001092B1001092AF001092AE00CF912B
:10011000DF910895DF93CF93CDB7DEB7E0E4F0E051
:1001200086E88083EAE2F0E088ED8083E0E4F0E0B6
:100130001082E9E2F0E087E680830E947700CF91A9
:10014000DF910895DF93CF93CDB7DEB78091AF00F5
:100150008823E1F0ACE2B0E08091B100882F90E01C
:10016000FC01EE54FF4F80818C938091B1008F5F32
:100170008093B1008091AF0081508093AF00809157
:10018000B1008C3338F01092B10004C01092B1006D
:1001900010927000CF91DF910895DF93CF93CDB788
:1001A000DEB78091B000882F90E0ECE2F0E0208193
:1001B000FC01EE58FF4F20838091B0008F5F809349
:1001C000B0008091AE008F5F8093AE008091B00050
:1001D0008C3310F01092B000CF91DF910895DF932F
:1001E000CF9300D00F92CDB7DEB79B838A8319825D
:1001F00023C080917000882F90E0EA81FB812081EC
:10020000FC01EE54FF4F20838A819B8101969B83E2
:100210008A83809170008F5F809370008091AF001F
:100220008F5F8093AF0089818F5F89838091700099
:100230008C3310F010927000EA81FB81808188235A
:1002400019F089818C33A8F2EBE2F0E080818823F9
:1002500011F00E94A2000F900F900F90CF91DF91AC
:100260000895DF93CF930F92CDB7DEB78983809146
:100270007000882F90E0FC01EE54FF4F898180834D
:10028000809170008F5F809370008091AF008F5FCE
:100290008093AF00809170008C3310F0109270004A
:1002A000EBE2F0E08081882311F00E94A2000F9021
:1002B000CF91DF910895DF93CF930F92CDB7DEB743
:1002C00019828091AE008823D1F080917100882F2F
:1002D00090E0FC01EE58FF4F80818983809171008E
:1002E0008F5F80937100809171008C3310F01092B9
:1002F00071008091AE0081508093AE0004C01092D6
:1003000071001092B00089810F90CF91DF91089514
:10031000DF93CF93CDB7DEB78091AE00CF91DF9161
:100320000895DF93CF93CDB7DEB78091AF00CF9123
:10033000DF9108951F920F920FB60F9211242F9301
:100340003F934F935F936F937F938F939F93AF935D
:10035000BF93EF93FF93DF93CF93CDB7DEB70E94A8
:10036000A200CF91DF91FF91EF91BF91AF919F914B
:100370008F917F916F915F914F913F912F910F904E
:100380000FBE0F901F9018951F920F920FB60F92ED
:1003900011242F933F934F935F936F937F938F938A
:1003A0009F93AF93BF93EF93FF93DF93CF93CDB71B
:1003B000DEB70E94CD00CF91DF91FF91EF91BF9109
:1003C000AF919F918F917F916F915F914F913F91ED
:1003D0002F910F900FBE0F901F901895DF93CF9322
:1003E00000D0CDB7DEB79A8389838EEF0E943101AA
:1003F00089819A810E94EF008FEF0E9431010F9056
:0C0400000F90CF91DF910895F894FFCF8A
:10040C00616C6C6F2064656275676465627567000A
:00000001FF
