:100000000C942A000C9447000C9447000C94470071
:100010000C9447000C9447000C9447000C94470044
:100020000C9447000C94F5020C9447000C94470084
:100030000C9447000C94AF010C9447000C9485017C
:100040000C9447000C9447000C9447000C94470014
:100050000C94470011241FBECFE5D8E0DEBFCDBF12
:1000600011E0A0E6B0E0E4EAF6E202C005900D92ED
:10007000AA38B107D9F712E0AAE8B1E001C01D9291
:10008000A035B107E1F70E9449000C9450130C947D
:100090000000DF93CF930F92CDB7DEB70E949F028F
:1000A0000E94B10280E690E00E94F3018FEF898305
:1000B00089818E7F8983E8E3F0E0898180830E94D3
:1000C0000D02FDCFDF93CF93CDB7DEB710921002B4
:1000D0001092D1011092D0011092110210920F02D1
:1000E00010920E02CF91DF910895DF93CF93CDB799
:1000F000DEB7E0E4F0E086E88083EAE2F0E088ED55
:100100008083E0E4F0E01082E9E2F0E087E68083BB
:100110000E946200CF91DF910895DF93CF93CDB716
:10012000DEB780910F028823E1F0ACE2B0E080916D
:100130001102882F90E0FC01EE5EFD4F80818C93D0
:10014000809111028F5F8093110280910F02815084
:1001500080930F02809111028C3338F010921102BB
:1001600004C0109211021092D001CF91DF91089536
:10017000DF93CF93CDB7DEB780911002882F90E048
:10018000ECE2F0E02081FC01EE52FE4F20838091F2
:1001900010028F5F8093100280910E028F5F809318
:1001A0000E02809110028C3310F010921002CF9149
:1001B000DF910895DF93CF9300D00F92CDB7DEB7D4
:1001C0009B838A83198223C08091D001882F90E07D
:1001D000EA81FB812081FC01EE5EFD4F20838A8154
:1001E0009B8101969B838A838091D0018F5F80934E
:1001F000D00180910F028F5F80930F0289818F5F02
:1002000089838091D0018C3310F01092D001EA8163
:10021000FB818081882319F089818C33A8F2EBE27D
:10022000F0E08081882311F00E948D000F900F90E4
:100230000F90CF91DF910895DF93CF930F92CDB7B9
:10024000DEB789838091D001882F90E0FC01EE5EBB
:10025000FD4F898180838091D0018F5F8093D00191
:1002600080910F028F5F80930F028091D0018C33B9
:1002700010F01092D001EBE2F0E08081882311F0C1
:100280000E948D000F90CF91DF910895DF93CF935F
:100290000F92CDB7DEB7198280910E028823D1F07C
:1002A0008091D101882F90E0FC01EE52FE4F8081B9
:1002B00089838091D1018F5F8093D1018091D10199
:1002C0008C3310F01092D10180910E0281508093F6
:1002D0000E0204C01092D1011092100289810F9079
:1002E000CF91DF910895DF93CF93CDB7DEB78091A3
:1002F0000E02CF91DF910895DF93CF93CDB7DEB794
:1003000080910F02CF91DF9108951F920F920FB647
:100310000F9211242F933F934F935F936F937F938B
:100320008F939F93AF93BF93EF93FF93DF93CF93FD
:10033000CDB7DEB70E948D00CF91DF91FF91EF9195
:10034000BF91AF919F918F917F916F915F914F91ED
:100350003F912F910F900FBE0F901F9018951F92F5
:100360000F920FB60F9211242F933F934F935F93E9
:100370006F937F938F939F93AF93BF93EF93FF936D
:10038000DF93CF93CDB7DEB70E94B800CF91DF9156
:10039000FF91EF91BF91AF919F918F917F916F915D
:1003A0005F914F913F912F910F900FBE0F901F9033
:1003B0001895DF93CF9300D0CDB7DEB79A838983AA
:1003C0008EEF0E941C0186E690E00E94DA0089818F
:1003D0009A810E94DA008FEF0E941C010F900F900B
:1003E000CF91DF910895DF93CF9300D0CDB7DEB7E3
:1003F0009A8389838EEF0E941C018EE690E00E9412
:10040000DA0089819A810E94DA008FEF0E941C0134
:100410000F900F90CF91DF910895DF93CF9300D08D
:10042000CDB7DEB70E947301882309F483C00E9410
:10043000460180938E0180918A01282F30E03A8313
:10044000298389819A818230910509F44BC02981E1
:100450003A812330310554F489819A81009799F0CB
:1004600029813A812130310519F162C089819A814F
:100470008330910509F44AC029813A81243031053D
:1004800009F44DC055C080918E01813F29F08091C3
:100490008E01803F09F04EC080918E010E941C01A8
:1004A00080918E0180938B0181E080938A0142C00C
:1004B00090918C0180918E01981741F080918E016E
:1004C000882321F486E790E00E94D90180918E0173
:1004D00080938C0180918E010E941C0182E08093A8
:1004E0008A0128C080918E0180938D0180918E01B8
:1004F0000E941C0180918B01813F21F484E0809354
:100500008A0118C083E080938A0114C010928A0186
:1005100080918C0160E042E00E9486080BC010923E
:100520008A0180918C0160E040E00E94860802C050
:1005300010928A010F900F90CF91DF910895DF9371
:10054000CF93CDB7DEB7E7E3F0E08FEF8083E1E351
:10055000F0E08EEF808378940E947500CF91DF9158
:100560000895DF93CF93CDB7DEB7EFE4F0E082E8F4
:100570008083EEE4F0E08AE18083E9E5F0E084E066
:100580008083E6E4F0E080E197E291838083EAE40F
:10059000F0E011821082E8E4F0E011821082CF9145
:1005A000DF910895DF93CF9300D000D00F92CDB7A5
:1005B000DEB79A8389837C836B834D8389819A819B
:1005C0009093900180938F018B819C8190939201F5
:1005D000809391018D8180934E020F900F900F9028
:1005E0000F900F90CF91DF9108951F920F920FB649
:1005F0000F9211248F939F93EF93FF93DF93CF93E9
:10060000CDB7DEB7EAE4F0E080918F0190919001E0
:1006100091838083E8E4F0E08091910190919201D0
:100620009183808380914E02806180934E028091FD
:100630004E02806180934E02E2E3F0E080914E0230
:100640008083CF91DF91FF91EF919F918F910F90D8
:100650000FBE0F901F9018958F929F92AF92BF92EE
:10066000CF92DF92EF92FF920F931F93DF93CF937E
:10067000CDB7DEB7C655D0400FB6F894DEBF0FBE7B
:10068000CDBF69837A838B839C832D833E834F8385
:100690005887E986FA860B871C87AD86BE86CF868B
:1006A000D88A9A8A898A69857A858B859C8520E093
:1006B00030E040E85FE30E94390F18165CF480E0F8
:1006C00090E0A0E8BFE367968CAF9DAFAEAFBFAF41
:1006D00067972DC069857A858B859C8520E030E001
:1006E00040E85FEB0E94990F88235CF480E090E083
:1006F000A0E8BFEB63968CAF9DAFAEAFBFAF639783
:100700000AC089859A85AB85BC8563968CAF9DAF01
:10071000AEAFBFAF639763968CAD9DADAEADBFADD1
:10072000639767968CAF9DAFAEAFBFAF6797679685
:100730008CAD9DADAEADBFAD679789879A87AB870E
:10074000BC876D857E858F85988920E030E040E804
:100750005FE30E94390F18165CF480E090E0A0E897
:10076000BFE32F968CAF9DAFAEAFBFAF2F972DC01D
:100770006D857E858F85988920E030E040E85FEBCD
:100780000E94990F88235CF480E090E0A0E8BFEB22
:100790002B968CAF9DAFAEAFBFAF2B970AC08D85A8
:1007A0009E85AF85B8892B968CAF9DAFAEAFBFAF9E
:1007B0002B972B968CAD9DADAEADBFAD2B972F96E5
:1007C0008CAF9DAFAEAFBFAF2F972F968CAD9DADC9
:1007D000AEADBFAD2F978D879E87AF87B88B8091C9
:1007E000C4019091C501A091C601B091C701809349
:1007F000C0019093C101A093C201B093C3016D8564
:100800007E858F85988929853A854B855C850E94F0
:10081000350DDC01CB01BC01CD012AE132E646E811
:1008200050E40E94930DDC01CB018093C4019093AE
:10083000C501A093C601B093C7016D857E858F85E4
:10084000988929853A854B855C850E94660DDC0177
:10085000CB01BC01CD0120E030E040E05FE30E942D
:10086000930DDC01CB018093BC019093BD01A0935B
:10087000BE01B093BF018091C4019091C501A091C8
:10088000C601B091C7012091C0013091C1014091D2
:10089000C2015091C301BC01CD010E94660DDC0173
:1008A000CB01BC01CD012AE037ED43E25BE30E94BE
:1008B000930DDC01CB012091CC013091CD01409111
:1008C000CE015091CF01BC01CD010E94660DDC012B
:1008D000CB018093CC019093CD01A093CE01B09336
:1008E000CF018091CC019091CD01A091CE01B0912A
:1008F000CF01BC01CD012BED3FE049EC50E40E945B
:10090000390F1816CCF48091CC019091CD01A091B3
:10091000CE01B091CF01BC01CD012BED3FE049EC00
:1009200050E40E94350DDC01CB0127968CAF9DAFC2
:10093000AEAFBFAF279745C08091CC019091CD015C
:10094000A091CE01B091CF01BC01CD0120E030E0FB
:1009500040E050E00E94990F8823CCF48091CC01B4
:100960009091CD01A091CE01B091CF01BC01CD01FC
:100970002BED3FE049EC50E40E94660DDC01CB0119
:1009800023968CAF9DAFAEAFBFAF23970EC08091C3
:10099000CC019091CD01A091CE01B091CF012396D1
:1009A0008CAF9DAFAEAFBFAF239723968CAD9DADFF
:1009B000AEADBFAD239727968CAF9DAFAEAFBFAFA7
:1009C000279727968CAD9DADAEADBFAD2797809391
:1009D000CC019093CD01A093CE01B093CF01809133
:1009E000CC019091CD01A091CE01B091CF01BC017D
:1009F000CD012BED3FE049E450E40E94660DDC019F
:100A0000CB01BC01CD012D813E814F8158850E94D3
:100A1000C90F18168CF06D817E818F8198852BED22
:100A20003FE049EC50E40E94350DDC01CB018BAF77
:100A30009CAFADAFBEAF3DC08091CC019091CD01D8
:100A4000A091CE01B091CF01BC01CD012BED3FE0D3
:100A500049E450E40E94350DDC01CB01BC01CD011D
:100A60002D813E814F8158850E94690F88238CF02B
:100A70006D817E818F8198852BED3FE049EC50E4BC
:100A80000E94660DDC01CB018FAB98AFA9AFBAAF66
:100A900008C08D819E81AF81B8858FAB98AFA9AF1B
:100AA000BAAF8FA998ADA9ADBAAD8BAF9CAFADAFC2
:100AB000BEAF2091CC013091CD014091CE0150913B
:100AC000CF016BAD7CAD8DAD9EAD0E94350DDC01CF
:100AD000CB018093C8019093C901A093CA01B09340
:100AE000CB018091BC019091BD01A091BE01B0915C
:100AF000BF01BC01CD0128EE31EB49E750EC0E946B
:100B0000930DDC01CB017C018D0169817A818B81A0
:100B10009C8124EF38ED4CE950E40E94930DDC01F8
:100B2000CB019C01AD01C801B7010E94660DDC013B
:100B3000CB018093B8019093B901A093BA01B0930F
:100B4000BB018091C8019091C901A091CA01B091E7
:100B5000CB01BC01CD0121E237EA44E95FE30E9409
:100B6000930DDC01CB017C018D018091C40190913A
:100B7000C501A091C601B091C701BC01CD0128E11A
:100B800037EA44E15FEB0E94930DDC01CB019C014D
:100B9000AD01C801B7010E94660DDC01CB01809355
:100BA000B4019093B501A093B601B093B7018091C1
:100BB000B4019091B501A091B601B091B701BC010B
:100BC000CD0120E030E040E050E00E94690F882332
:100BD0002CF0A1E0B0E0BEABADAB04C08FEF9FEF57
:100BE0009EAB8DABADA9BEA9B093B301A093B201EA
:100BF0008091B8019091B901A091BA01B091BB0167
:100C0000BC01CD0120E030E040E050E00E94690FDF
:100C100088232CF081E090E09CAB8BAB04C0AFEF5D
:100C2000BFEFBCABABAB8BA99CA99093B1018093F8
:100C3000B0018091B2019091B301AA2797FDA095D0
:100C4000BA2FBC01CD010E94F90FDC01CB0120912C
:100C5000B4013091B5014091B6015091B701BC018A
:100C6000CD010E94930DDC01CB01BC01CD0120E040
:100C700030E040E85FE30E94390F18168CF4809151
:100C8000B2019091B301AA2797FDA095BA2FBC019C
:100C9000CD010E94F90F6FA778AB89AB9AAB43C027
:100CA0008091B2019091B301AA2797FDA095BA2F28
:100CB000BC01CD010E94F90FDC01CB012091B401F0
:100CC0003091B5014091B6015091B701BC01CD0101
:100CD0000E94930DDC01CB01BC01CD012DEC3CEC5D
:100CE0004CE45DE30E94C90F18164CF080E090E0E0
:100CF000A0E0B0E08BA79CA7ADA7BEA70CC08091D9
:100D0000B4019091B501A091B601B091B7018BA744
:100D10009CA7ADA7BEA78BA59CA5ADA5BEA58FA77B
:100D200098ABA9ABBAAB8FA598A9A9A9BAA980938A
:100D3000B4019093B501A093B601B093B70180912F
:100D4000B0019091B101AA2797FDA095BA2FBC01DF
:100D5000CD010E94F90FDC01CB012091B801309147
:100D6000B9014091BA015091BB01BC01CD010E9473
:100D7000930DDC01CB01BC01CD0120E030E040E867
:100D80005FE30E94390F18168CF48091B0019091A6
:100D9000B101AA2797FDA095BA2FBC01CD010E94F1
:100DA000F90F6FA378A789A79AA70CC08091B80103
:100DB0009091B901A091BA01B091BB018FA398A7FE
:100DC000A9A7BAA78FA198A5A9A5BAA58093B8018C
:100DD0009093B901A093BA01B093BB018091B00187
:100DE0009091B101AA2797FDA095BA2FBC01CD0122
:100DF0000E94F90FDC01CB012091B8013091B901BB
:100E00004091BA015091BB01BC01CD010E94930DEC
:100E1000DC01CB017C018D018091B2019091B30185
:100E2000AA2797FDA095BA2FBC01CD010E94F90F0A
:100E3000DC01CB012091B4013091B5014091B601A4
:100E40005091B701BC01CD010E94930DDC01CB0193
:100E50009C01AD0160E070E080E89FE30E94350DE9
:100E6000DC01CB019C01AD01C801B7010E94390F23
:100E700018160CF041C08091B0019091B101AA27E1
:100E800097FDA095BA2FBC01CD010E94F90F7B01FF
:100E90008C018091B2019091B301AA2797FDA09592
:100EA000BA2FBC01CD010E94F90FDC01CB012091CA
:100EB000B4013091B5014091B6015091B701BC0128
:100EC000CD010E94930DDC01CB019C01AD0160E0DE
:100ED00070E080E89FE30E94350DDC01CB019C01AE
:100EE000AD01C801B7010E94930DDC01CB018BA3BA
:100EF0009CA3ADA3BEA30CC08091B8019091B90191
:100F0000A091BA01B091BB018BA39CA3ADA3BEA3DA
:100F10008BA19CA1ADA1BEA18093B8019093B90112
:100F2000A093BA01B093BB018091B8019091B9012F
:100F3000A091BA01B091BB012091B4013091B501EB
:100F40004091B6015091B701BC01CD010E94660DE0
:100F5000DC01CB01A796EEADFFADA797808391830F
:100F6000A283B3838091B8019091B901A091BA0195
:100F7000B091BB012091B4013091B5014091B6010F
:100F80005091B701BC01CD010E94350DDC01CB01B0
:100F9000E989FA8980839183A283B383A796EEAD12
:100FA000FFADA79780819181A281B381BC01CD0162
:100FB00024EA30E74DE75FE30E94390F18164CF43E
:100FC00084EA90E7ADE7BFE38F8F98A3A9A3BAA304
:100FD0002FC0A796EEADFFADA79780819181A2812A
:100FE000B381BC01CD0124EA30E74DE75FEB0E94FD
:100FF000990F88234CF484EA90E7ADE7BFEB8B8F21
:101000009C8FAD8FBE8F0CC0A796EEADFFADA7979E
:1010100080819181A281B3818B8F9C8FAD8FBE8F98
:101020008B8D9C8DAD8DBE8D8F8F98A3A9A3BAA3F8
:10103000A796EEADFFADA7978F8D98A1A9A1BAA1F4
:1010400080839183A283B383E989FA898081918126
:10105000A281B381BC01CD0124EA30E74DE75FE313
:101060000E94390F18164CF484EA90E7ADE7BFE30D
:101070008F8B988FA98FBA8F2BC0E989FA898081CD
:101080009181A281B381BC01CD0124EA30E74DE713
:101090005FEB0E94990F88234CF484EA90E7ADE758
:1010A000BFEB8B8B9C8BAD8BBE8B0AC0E989FA8919
:1010B00080819181A281B3818B8B9C8BAD8BBE8B08
:1010C0008B899C89AD89BE898F8B988FA98FBA8FA8
:1010D000E989FA898F89988DA98DBA8D808391834A
:1010E000A283B383CA5ADF4F0FB6F894DEBF0FBE98
:1010F000CDBFCF91DF911F910F91FF90EF90DF90C7
:10110000CF90BF90AF909F908F9008958F929F92B5
:10111000AF92BF92CF92DF92EF92FF920F931F9305
:10112000DF93CF93CDB7DEB727970FB6F894DEBF26
:101130000FBECDBF8D836E834F838F818823C9F10E
:101140008F81882F90E081309105A9F480914F0222
:101150008B7F80934F0280914F02877F80934F0255
:1011600080914F028F7B80934F0280914F028F7747
:1011700080934F0214C080914F02846080934F028D
:1011800080914F02886080934F0280914F0280646B
:1011900080934F0280914F02806880934F0220918C
:1011A0004F0280E090E060E070E0422F0E94D202A7
:1011B00041C1909193018D81891731F490919401EF
:1011C0008E81891709F436C1909193018D81891719
:1011D00009F18D81882F90E084569040AA2797FDD1
:1011E000A095BA2FBC01CD010E94F90FDC01CB0103
:1011F000BC01CD0120E030E048EC52E40E948D0EAD
:10120000DC01CB018093980190939901A0939A01FE
:10121000B0939B01909194018E81891759F18E8131
:10122000882F90E0880F991FAA2797FDA095BA2FC5
:10123000BC01CD010E94F90FDC01CB01BC01CD0145
:101240002BED3FE049E450E40E94930DDC01CB011B
:10125000BC01CD0120E030E044E353E40E948D0E58
:10126000DC01CB0180939C0190939D01A0939E0192
:10127000B0939F01209198013091990140919A017A
:1012800050919B01E0909801F090990100919A0192
:1012900010919B01A0909801B0909901C0909A0183
:1012A000D0909B0100D0EDB7FEB73196A8EAB1E02F
:1012B0008CEA91E091838083CA01B90120E030E09B
:1012C00040E050E04D010E942C030F900F90809160
:1012D000A8019091A901A091AA01B091AB01BC0114
:1012E000CD0120E030E040E050E00E94990F8823DB
:1012F000E4F480914F028B7F80934F0280914F02E4
:10130000886080934F028091A8019091A901A091DB
:10131000AA01B091AB01B0588093A8019093A901A4
:10132000A093AA01B093AB010AC080914F028460E0
:1013300080934F0280914F02877F80934F0280916C
:10134000AC019091AD01A091AE01B091AF01BC0193
:10135000CD0120E030E040E050E00E94990F88236A
:10136000E4F480914F028F7B80934F0280914F0273
:10137000806880934F028091AC019091AD01A09163
:10138000AE01B091AF01B0588093AC019093AD0124
:10139000A093AE01B093AF010AC080914F02806468
:1013A00080934F0280914F028F7780934F028091FC
:1013B000AC019091AD01A091AE01B091AF01BC0123
:1013C000CD0120E030E44CE156E40E94930DDC01B5
:1013D000CB01BC01CD010E94BD0BDC01CB019C8384
:1013E0008B838091AC019091AD01A091AE01B09141
:1013F000AF01BC01CD0120E030E44CE156E40E9495
:10140000930DDC01CB01BC01CD010E94BD0BDC01C1
:10141000CB019A83898340914F028B819C812981E2
:101420003A81B9010E94D2028D81809393018E810D
:101430008093940127960FB6F894DEBF0FBECDBF00
:10144000CF91DF911F910F91FF90EF90DF90CF90A0
:10145000BF90AF909F908F9008956F927F928F92E0
:101460009F92AF92BF92CF92DF92EF92FF920F9333
:101470001F93DF93CF9300D000D000D0CDB7DEB75D
:101480009C838B837E836D8380919501282F30E030
:101490008B819C812817390751F480919601282F60
:1014A00030E08D819E812817390709F451C1809160
:1014B0009701882309F04CC180919501282F30E0D5
:1014C0008B819C812817390739F18B819C81CC0154
:1014D000A0E0B0E0BC01CD010E94AB10DC01CB016B
:1014E000BC01CD0120E030E84FEF53E40E94350D00
:1014F000DC01CB01BC01CD0120E030E84FEF53E42B
:101500000E948D0EDC01CB018093A0019093A1017C
:10151000A093A201B093A30180919601282F30E0FF
:101520008D819E812817390739F18D819E81CC01EB
:10153000A0E0B0E0BC01CD010E94AB10DC01CB010A
:10154000BC01CD0120E030E84FEF53E40E94350D9F
:10155000DC01CB01BC01CD0120E030E84FEF53E4CA
:101560000E948D0EDC01CB018093A4019093A50114
:10157000A093A601B093A701209198013091990101
:1015800040919A0150919B01E0909C01F0909D0147
:1015900000919E0110919F01A090A001B090A10127
:1015A000C090A201D090A3016090A4017090A50109
:1015B0008090A6019090A70100D0EDB7FEB73196BC
:1015C000A8EAB1E08CEA91E091838083CA01B90175
:1015D000A801970186017501640153014D010E9424
:1015E0002C030F900F908091A8019091A901A091D8
:1015F000AA01B091AB01BC01CD0120E030E040E098
:1016000050E00E94990F8823E4F480914F028B7F71
:1016100080934F0280914F02886080934F028091A7
:10162000A8019091A901A091AA01B091AB01B05875
:101630008093A8019093A901A093AA01B093AB0154
:101640000AC080914F02846080934F0280914F02C4
:10165000877F80934F028091AC019091AD01A09162
:10166000AE01B091AF01BC01CD0120E030E040E01F
:1016700050E00E94990F8823E4F480914F028F7B01
:1016800080934F0280914F02806880934F02809137
:10169000AC019091AD01A091AE01B091AF01B058F5
:1016A0008093AC019093AD01A093AE01B093AF01D4
:1016B0000AC080914F02806480934F0280914F0254
:1016C0008F7780934F028091AC019091AD01A091F2
:1016D000AE01B091AF01BC01CD0120E030E04FE799
:1016E00053E40E94930DDC01CB01BC01CD010E94AB
:1016F000BD0BDC01CB018A838091AC019091AD01DF
:10170000A091AE01B091AF01BC01CD0120E030E06D
:101710004FE753E40E94930DDC01CB01BC01CD01E6
:101720000E94BD0BDC01CB0189838A81482F50E0E8
:101730008981282F30E0E0914F02CA01B9014E2F74
:101740000E94D2028B81809395018D8180939601B6
:1017500026960FB6F894DEBF0FBECDBFCF91DF91B6
:101760001F910F91FF90EF90DF90CF90BF90AF90BF
:101770009F908F907F906F900895EF92FF920F93BC
:101780001F937B018C0120E030E040E05FE40E9489
:10179000690F88238CF0C801B70120E030E040E0F9
:1017A0005FE40E94350D0E9457109B01AC01205050
:1017B00030404040504806C0C801B7010E94571051
:1017C0009B01AC01B901CA011F910F91FF90EF90ED
:1017D0000895A0E0B0E0EFEEFBE00C941913DC01FB
:1017E0002B01FA019C91923008F439C1EB018881F8
:1017F000823008F433C1943069F4843009F02FC189
:1018000011969C9111978981981709F428C1A2E833
:10181000B0E025C1843009F421C18230A9F49230AE
:1018200009F01DC19A01AD0188E0EA010990AE01FD
:10183000E90109929E018150C1F7E2018981119667
:101840009C918923818308C1923009F407C11296C3
:101850002D903C901397EB018A819B811496AD905B
:10186000BD90CD90DC901797EC80FD800E811F819C
:101870009101281B390BB90137FF04C06627772770
:10188000621B730B603271050CF061C012161306F7
:101890006CF537014801062E04C09694879477941E
:1018A00067940A94D2F721E030E040E050E004C0B1
:1018B000220F331F441F551F6A95D2F72150304025
:1018C000404050402E213F21402351232115310516
:1018D0004105510521F021E030E040E050E0790180
:1018E0008A01E628F728082919293CC0232BD1F1C1
:1018F000260E371E35014601062E04C096948794A5
:10190000779467940A94D2F721E030E040E050E009
:1019100004C0220F331F441F551F6A95D2F7215070
:101920003040404050402A213B214C215D2121156F
:1019300031054105510521F021E030E040E050E063
:1019400059016A01A628B728C828D9280BC08215D2
:1019500093052CF01C01AA24BB24650103C0EE24CE
:10196000FF24870111969C91D20111968C919817B2
:1019700009F445C0992339F0A80197012A193B09B8
:101980004C095D0906C0A60195012E193F09400BBF
:10199000510B57FD08C01182338222822483358384
:1019A000468357831DC081E081833382228288274A
:1019B0009927DC01821B930BA40BB50B84839583C1
:1019C000A683B7830DC0220F331F441F551F2483E6
:1019D00035834683578382819381019793838283E2
:1019E0002481358146815781DA01C9010197A10916
:1019F000B1098F5F9F4FAF4FBF4328F30BC0918357
:101A000033822282EA0CFB1C0C1D1D1DE482F58230
:101A10000683178383E08083248135814681578143
:101A200057FF1AC0C901AA2797FDA095BA2F817048
:101A30009070A070B0705695479537952795822B7A
:101A4000932BA42BB52B84839583A683B7838281A4
:101A50009381019693838283DF0101C0D201CD017E
:101A6000CDB7DEB7E2E10C943513A0E2B0E0EBE3D2
:101A7000FDE00C94251369837A838B839C832D83EB
:101A80003E834F835887E9E0EE2EF12CEC0EFD1ECD
:101A9000CE010196B7010E9448128E010F5E1F4FC2
:101AA000CE010596B8010E9448128A8991E08927E3
:101AB0008A8BC701B801AE01475E5F4F0E94E90BF8
:101AC0000E947311A096E6E00C944113A0E2B0E0EE
:101AD000ECE6FDE00C94251369837A838B839C8369
:101AE0002D833E834F835887F9E0EF2EF12CEC0EC7
:101AF000FD1ECE010196B7010E9448128E010F5EB5
:101B00001F4FCE010596B8010E944812C701B801C7
:101B1000AE01475E5F4F0E94E90B0E947311A096D1
:101B2000E6E00C944113A0E2B0E0E9E9FDE00C949A
:101B3000191369837A838B839C832D833E834F8320
:101B40005887CE010196BE01675F7F4F0E94481201
:101B5000CE010596BE016F5E7F4F0E9448129985A7
:101B6000923088F089898230C8F0943019F482303C
:101B700051F404C0843029F4923081F482E890E07A
:101B8000C6C0923049F420E09A858A89981321E0F2
:101B90002A87CE010996BBC0823049F420E09A859D
:101BA0008A89981321E02A8BCE014196B0C02D84FA
:101BB0003E844F8458886D887E888F88988CEE2468
:101BC000FF248701AA24BB24650140E050E060E0C7
:101BD00070E0E0E0F0E0C10181709070892BE9F0E5
:101BE000E60CF71C081D191D9A01AB012A0D3B1DBF
:101BF0004C1D5D1D80E090E0A0E0B0E0E614F7042D
:101C00000805190520F481E090E0A0E0B0E0BA01F9
:101C1000A901480F591F6A1F7B1FAA0CBB1CCC1CB3
:101C2000DD1C97FE08C081E090E0A0E0B0E0A82AAB
:101C3000B92ACA2ADB2A3196E032F10549F0660C4E
:101C4000771C881C991C5694479437942794C3CFCB
:101C5000FA85EA892B893C898B859C85280F391F59
:101C60002E5F3F4F17C0CA0181709070892B61F0C1
:101C700016950795F794E79480E090E0A0E0B0E82F
:101C8000E82AF92A0A2B1B2B7695679557954795D5
:101C90002F5F3F4F77FDE7CF0CC0440F551F661FE6
:101CA000771F17FD4160EE0CFF1C001F111F215014
:101CB0003040403090E0590790E0690790E47907A0
:101CC00060F32B8F3C8FDB01CA018F779070A0707F
:101CD000B07080349105A105B10561F447FD0AC0DB
:101CE000E114F1040105110529F0405C5F4F6F4FCD
:101CF0007F4F40781A8EFE1711F081E08A8F4D8F4A
:101D00005E8F6F8F78A383E0898FCE0149960E9402
:101D10007311A096E2E10C943513A8E1B0E0E3E979
:101D2000FEE00C94211369837A838B839C832D833B
:101D30003E834F835887B9E0EB2EF12CEC0EFD1E4D
:101D4000CE010196B7010E9448128E010F5E1F4F0F
:101D5000CE010596B8010E9448122985223008F468
:101D60007EC03989323010F4B8017CC08A859A89E6
:101D700089278A87243011F0223031F4231709F0A3
:101D80006EC062E870E06EC0343039F41D861E8685
:101D90001F86188A1C861B8604C0323021F484E01A
:101DA0008987B7015FC02B853C858B899C89281B5F
:101DB000390B3C872B87ED84FE840F851889AD880D
:101DC000BE88CF88D88CEA14FB040C051D0540F4AE
:101DD000EE0CFF1C001F111F215030403C872B8749
:101DE00020E030E040E050E080E090E0A0E0B0E4AF
:101DF00060E070E0EA14FB040C051D0540F0282BA0
:101E0000392B4A2B5B2BEA18FB080C091D09B695E8
:101E1000A79597958795EE0CFF1C001F111F6F5F0C
:101E20007F4F6F31710531F7DA01C9018F779070FB
:101E3000A070B07080349105A105B10561F427FD53
:101E40000AC0E114F1040105110529F0205C3F4F9F
:101E50004F4F5F4F20782D873E874F87588BBE01AD
:101E6000675F7F4FCB010E9473116896EAE00C9484
:101E70003D13A8E1B0E0EFE3FFE00C942513698384
:101E80007A838B839C832D833E834F83588789E09D
:101E9000E82EF12CEC0EFD1ECE010196B7010E943A
:101EA00048128E010F5E1F4FCE010596B8010E94A9
:101EB00048128985823040F08989823028F0C70134
:101EC000B8010E94C01201C08FEF6896E6E00C9442
:101ED0004113A8E1B0E0EFE6FFE00C94251369831D
:101EE0007A838B839C832D833E834F83588789E03D
:101EF000E82EF12CEC0EFD1ECE010196B7010E94DA
:101F000048128E010F5E1F4FCE010596B8010E9448
:101F100048128985823040F08989823028F0C701D3
:101F2000B8010E94C01201C08FEF6896E6E00C94E1
:101F30004113A8E1B0E0EFE9FFE00C9425136983B9
:101F40007A838B839C832D833E834F83588789E0DC
:101F5000E82EF12CEC0EFD1ECE010196B7010E9479
:101F600048128E010F5E1F4FCE010596B8010E94E8
:101F700048128985823040F08989823028F0C70173
:101F8000B8010E94C01201C081E06896E6E00C949E
:101F90004113A8E1B0E0EFECFFE00C942513698356
:101FA0007A838B839C832D833E834F83588789E07C
:101FB000E82EF12CEC0EFD1ECE010196B7010E9419
:101FC00048128E010F5E1F4FCE010596B8010E9488
:101FD00048128985823040F08989823028F0C70113
:101FE000B8010E94C01201C081E06896E6E00C943E
:101FF0004113A8E0B0E0EFEFFFE00C9422139B0147
:10200000AC0183E08983DA01C9018827B7FD839594
:102010009927AA27BB27B82E21153105410551055F
:1020200019F482E089833AC08823A9F0203080E047
:10203000380780E0480780E8580729F460E070E03E
:1020400080E09FEC30C0EE24FF248701E21AF30AFF
:10205000040B150B02C079018A018EE1C82ED12C28
:10206000DC82CB82ED82FE820F831887C801B70124
:102070000E94241101971816190684F4082E04C032
:10208000EE0CFF1C001F111F0A94D2F7ED82FE8296
:102090000F831887C81AD90ADC82CB82BA82CE0194
:1020A00001960E9473112896E9E00C943E13ACE06F
:1020B000B0E0EDE5F0E10C94291369837A838B831A
:1020C0009C83CE010196BE016B5F7F4F0E94481238
:1020D0008D81823061F1823050F1843021F48E8123
:1020E000882351F12EC02F81388537FD20C06E81A5
:1020F0002F3131051CF06623F9F023C08EE190E00A
:10210000821B930B29853A854B855C8504C05695C7
:102110004795379527958A95D2F76623B1F0509564
:102120004095309521953F4F4F4F5F4F0EC020E0B7
:1021300030E040E050E009C02FEF3FEF4FEF5FE7A6
:1021400004C020E030E040E050E8B901CA012C961C
:10215000E2E00C944513A8E0B0E0E1EBF0E10C9470
:1021600021137B018C01611571058105910519F41D
:1021700082E0898360C083E089838EE1C82ED12C00
:10218000DC82CB82ED82FE820F831887C801B70103
:102190000E942411FC013197F7FF3BC0222733270F
:1021A0002E1B3F0B57016801022E04C0D694C79422
:1021B000B794A7940A94D2F740E050E060E070E052
:1021C00081E090E0A0E0B0E004C0880F991FAA1F52
:1021D000BB1F2A95D2F70197A109B1098E219F2132
:1021E000A023B1230097A105B10521F041E050E003
:1021F00060E070E04A295B296C297D294D835E836C
:102200006F8378878EE190E08E1B9F0B9C838B837E
:1022100012C0309781F00E2E04C0EE0CFF1C001F80
:10222000111F0A94D2F7ED82FE820F831887CE1A0F
:10223000DF0ADC82CB821A82CE0101960E947311E2
:102240002896EAE00C943D13EF92FF920F931F93B0
:102250007B018C0180E0E81680E0F80681E0080749
:1022600080E0180788F48FEFE816F10401051105E6
:1022700031F028F088E090E0A0E0B0E017C080E006
:1022800090E0A0E0B0E012C080E0E81680E0F80640
:1022900080E0080781E0180728F088E190E0A0E0DE
:1022A000B0E004C080E190E0A0E0B0E020E230E0E7
:1022B00040E050E0281B390B4A0B5B0B04C016951D
:1022C0000795F794E7948A95D2F7F701E657FF4F01
:1022D0008081281B310941095109C9011F910F91C2
:1022E000FF90EF900895DF92EF92FF920F931F936C
:1022F000FC01E480F58006811781D18080818230E5
:1023000048F480E090E0A0E1B0E0E82AF92A0A2B46
:102310001B2BA5C0843009F49FC0823021F4EE2429
:10232000FF24870105C0E114F1040105110519F42A
:10233000E0E0F0E096C0628173819FEF6238790738
:102340000CF05BC022E83FEF261B370B2A3131052A
:102350002CF020E030E040E050E02AC0B801A701B6
:10236000022E04C076956795579547950A94D2F743
:1023700081E090E0A0E0B0E004C0880F991FAA1FA0
:10238000BB1F2A95D2F70197A109B1098E219F2180
:10239000A023B1230097A105B10521F081E090E0D1
:1023A000A0E0B0E09A01AB01282B392B4A2B5B2B24
:1023B000DA01C9018F779070A070B07080349105F8
:1023C000A105B10539F427FF09C0205C3F4F4F4FED
:1023D0005F4F04C0215C3F4F4F4F5F4FE0E0F0E0A4
:1023E0002030A0E03A07A0E04A07A0E45A0710F026
:1023F000E1E0F0E079018A0127C06038710564F5F9
:10240000FB01E158FF4FD801C7018F779070A07092
:10241000B07080349105A105B10539F4E7FE0DC017
:1024200080E490E0A0E0B0E004C08FE390E0A0E0A2
:10243000B0E0E80EF91E0A1F1B1F17FF05C0169516
:102440000795F794E794319687E016950795F794EA
:10245000E7948A95D1F705C0EE24FF248701EFEFBA
:10246000F0E06E2F679566276795902F9F77D7943A
:10247000DD24D7948E2F8695492F462B582F5D2922
:10248000B701CA011F910F91FF90EF90DF9008955F
:10249000FC01DB01408151812281622F6F7770E066
:1024A000221F2227221F9381892F880F822B282FFA
:1024B00030E0991F9927991F11969C931197211528
:1024C0003105A9F5411551056105710511F482E049
:1024D00037C082E89FEF13969C938E9312979A01D0
:1024E000AB0167E0220F331F441F551F6A95D1F7D8
:1024F00083E08C930DC0220F331F441F551F12968B
:102500008D919C911397019713969C938E9312979C
:10251000203080E0380780E0480780E4580758F30F
:1025200014962D933D934D935C93179708952F3FE9
:10253000310579F4411551056105710519F484E0FF
:102540008C93089564FF03C081E08C9312C01C92A9
:1025500010C02F57304013963C932E93129783E070
:102560008C9387E0440F551F661F771F8A95D1F71C
:10257000706414964D935D936D937C9317970895B3
:102580001F93DC01FB019C91923008F447C08081CD
:10259000823008F443C0943051F411961C91843079
:1025A00099F58181682F70E0611B71093FC084300B
:1025B00021F0923031F48230B9F18181882389F1A0
:1025C0002DC011961C9111978230F1F0818118175E
:1025D000D9F412962D913C911397828193818217A1
:1025E000930794F028173907BCF014968D919D91AC
:1025F0000D90BC91A02D24813581468157812817EB
:1026000039074A075B0718F4112341F00AC0821703
:102610009307A407B50740F4112319F061E070E0B7
:1026200005C06FEF7FEF02C060E070E0CB011F914B
:1026300008952F923F924F925F926F927F928F9266
:102640009F92AF92BF92CF92DF92EF92FF920F9341
:102650001F93CF93DF93CDB7DEB7CA1BDB0B0FB64B
:10266000F894DEBF0FBECDBF09942A883988488808
:102670005F846E847D848C849B84AA84B984C8849E
:10268000DF80EE80FD800C811B81AA81B981CE0F95
:10269000D11D0FB6F894DEBF0FBECDBFED0108957A
:0426A000F894FFCFDC
:1026A40052657365740044656275673A2000526F21
:1026B400626F743A2000766974657373653D300007
:1026C40010270000000000000000000102020303C4
:1026D40003030404040404040404050505050505B2
:1026E4000505050505050505050506060606060690
:1026F4000606060606060606060606060606060676
:10270400060606060606060606060707070707075F
:102714000707070707070707070707070707070745
:102724000707070707070707070707070707070735
:102734000707070707070707070707070707070725
:10274400070707070707070707070808080808080F
:1027540008080808080808080808080808080808F5
:1027640008080808080808080808080808080808E5
:1027740008080808080808080808080808080808D5
:1027840008080808080808080808080808080808C5
:1027940008080808080808080808080808080808B5
:1027A40008080808080808080808080808080808A5
:1027B4000808080808080808080808080808080895
:0A27C40008080808080808080808BB
:00000001FF
