:100000000C942A000C9447000C9447000C94470071
:100010000C9447000C9447000C9447000C94470044
:100020000C9447000C94E3020C9447000C94470096
:100030000C9447000C9447000C9447000C94470024
:100040000C9447000C9447000C9447000C94470014
:100050000C94470011241FBECFE5D8E0DEBFCDBF12
:1000600010E0A0E6B0E0EEE1F6E002C005900D92EF
:10007000A438B107D9F711E0A4E8B0E001C01D929F
:10008000A930B107E1F70E9449000C940D030C94CC
:100090000000DF93CF93CDB7DEB70E9493020E949A
:1000A000A10280E690E00E94E9010E940302FDCFD8
:1000B000DF93CF93CDB7DEB71092C90010928A00BC
:1000C000109289001092CA001092C8001092C700C6
:1000D000CF91DF910895DF93CF93CDB7DEB7E0E402
:1000E000F0E086E88083EAE2F0E088ED8083E0E4F7
:1000F000F0E01082E9E2F0E087E680830E94580099
:10010000CF91DF910895DF93CF93CDB7DEB7809184
:10011000C8008823E1F0ACE2B0E08091CA00882FEB
:1001200090E0FC01E553FF4F80818C938091CA00E1
:100130008F5F8093CA008091C80081508093C8006F
:100140008091CA008C3338F01092CA0004C010921B
:10015000CA0010928900CF91DF910895DF93CF9369
:10016000CDB7DEB78091C900882F90E0ECE2F0E0D7
:100170002081FC01E557FF4F20838091C9008F5FEC
:100180008093C9008091C7008F5F8093C7008091E2
:10019000C9008C3310F01092C900CF91DF910895FF
:1001A000DF93CF9300D00F92CDB7DEB79B838A83C6
:1001B000198223C080918900882F90E0EA81FB8119
:1001C0002081FC01E553FF4F20838A819B810196AA
:1001D0009B838A83809189008F5F809389008091BF
:1001E000C8008F5F8093C80089818F5F8983809169
:1001F00089008C3310F010928900EA81FB818081A4
:10020000882319F089818C33A8F2EBE2F0E0808139
:10021000882311F00E9483000F900F900F90CF91D0
:10022000DF910895DF93CF930F92CDB7DEB7898327
:1002300080918900882F90E0FC01E553FF4F898170
:100240008083809189008F5F809389008091C800AE
:100250008F5F8093C800809189008C3310F01092DA
:100260008900EBE2F0E08081882311F00E94830096
:100270000F90CF91DF910895DF93CF930F92CDB779
:10028000DEB719828091C7008823D1F080918A005F
:10029000882F90E0FC01E557FF4F80818983809192
:1002A0008A008F5F80938A0080918A008C3310F0DF
:1002B00010928A008091C70081508093C70004C0CB
:1002C00010928A001092C90089810F90CF91DF911E
:1002D0000895DF93CF93CDB7DEB78091C700CF915C
:1002E000DF910895DF93CF93CDB7DEB78091C8003B
:1002F000CF91DF9108951F920F920FB60F921124A4
:100300002F933F934F935F936F937F938F939F931D
:10031000AF93BF93EF93FF93DF93CF93CDB7DEB748
:100320000E948300CF91DF91FF91EF91BF91AF9138
:100330009F918F917F916F915F914F913F912F91FD
:100340000F900FBE0F901F9018951F920F920FB62F
:100350000F9211242F933F934F935F936F937F934B
:100360008F939F93AF93BF93EF93FF93DF93CF93BD
:10037000CDB7DEB70E94AE00CF91DF91FF91EF9134
:10038000BF91AF919F918F917F916F915F914F91AD
:100390003F912F910F900FBE0F901F901895DF93F4
:1003A000CF9300D0CDB7DEB79A8389838EEF0E94BA
:1003B000120186E690E00E94D00089819A810E9415
:1003C000D0008FEF0E9412010F900F90CF91DF911C
:1003D0000895DF93CF9300D0CDB7DEB79A8389839A
:1003E0008EEF0E9412018EE690E00E94D00089817B
:1003F0009A810E94D0008FEF0E9412010F900F90FF
:10040000CF91DF910895DF93CF9300D0CDB7DEB7C2
:100410000E946901882309F481C00E943C018093F5
:10042000880080918400282F30E03A8329838981D5
:100430009A818230910509F44BC029813A81233099
:10044000310554F489819A81009799F029813A8184
:100450002130310519F160C089819A81833091057D
:1004600009F44AC029813A812430310509F44BC08E
:1004700053C080918800813F29F080918800803F9F
:1004800009F04CC0809188000E9412018091880080
:100490008093850081E08093840040C09091860025
:1004A00080918800981741F080918800882321F47A
:1004B00086E790E00E94CF018091880080938600BB
:1004C000809188000E94120182E08093840026C0FF
:1004D0008091880080938700809188000E9412019B
:1004E00080918500813F21F484E08093840016C0D0
:1004F00083E08093840012C010928400E8E3F0E06F
:1005000085E580830BC010928400E8E3F0E08091E1
:1005100087008095808302C0109284000F900F9016
:10052000CF91DF910895DF93CF93CDB7DEB7E7E3A7
:10053000F0E08FEF808378940E946B00CF91DF9181
:100540000895DF93CF9300D0CDB7DEB780E197E277
:100550009A838983EFE4F0E082EA8083EEE4F0E0BE
:100560008AE18083E9E5F0E084E08083E7E4F0E07D
:1005700089819A81892F99278083E6E4F0E0898137
:100580008083EAE4F0E011821082E8E4F0E0118276
:1005900010820F900F90CF91DF910895DF93CF934A
:1005A0000F92CDB7DEB789830F90CF91DF91089579
:1005B000DF93CF93CDB7DEB780E890E00E94CF0104
:1005C000CF91DF9108951F920F920FB60F921124D1
:1005D0002F933F934F935F936F937F938F939F934B
:1005E000AF93BF93EF93FF93DF93CF93CDB7DEB776
:1005F0000E94D802CF91DF91FF91EF91BF91AF910F
:100600009F918F917F916F915F914F913F912F912A
:0E0610000F900FBE0F901F901895F894FFCF1B
:10061E0052657365740044656275673A2000526FC7
:10062E00626F743A2000766974657373653D3000AD
:04063E0070776D0064
:00000001FF
