:100000000C942A000C9447000C9447000C94470071
:100010000C9447000C9447000C9447000C94470044
:100020000C9447000C94E3020C9447000C94470096
:100030000C9447000C94A9010C9447000C947F0188
:100040000C9447000C9447000C9447000C94470014
:100050000C94470011241FBECFE5D8E0DEBFCDBF12
:1000600010E0A0E6B0E0EEE1F6E002C005900D92EF
:10007000A038B107D9F711E0A0E8B0E001C01D92A7
:10008000A530B107E1F70E9449000C940D030C94D0
:100090000000DF93CF93CDB7DEB70E9497020E9496
:1000A000A50280E690E00E94ED01E8E3F0E085E53E
:1000B00080830E940702FDCFDF93CF93CDB7DEB7D9
:1000C0001092C50010928600109285001092C60012
:1000D0001092C4001092C300CF91DF910895DF9376
:1000E000CF93CDB7DEB7E0E4F0E086E88083EAE2C4
:1000F000F0E088ED8083E0E4F0E01082E9E2F0E0F7
:1001000087E680830E945C00CF91DF910895DF93A2
:10011000CF93CDB7DEB78091C4008823E1F0ACE285
:10012000B0E08091C600882F90E0FC01E953FF4FBA
:1001300080818C938091C6008F5F8093C6008091F0
:10014000C40081508093C4008091C6008C3338F085
:100150001092C60004C01092C60010928500CF9184
:10016000DF910895DF93CF93CDB7DEB78091C500BF
:10017000882F90E0ECE2F0E02081FC01E957FF4F8E
:1001800020838091C5008F5F8093C5008091C3005C
:100190008F5F8093C3008091C5008C3310F0109264
:1001A000C500CF91DF910895DF93CF9300D00F92D8
:1001B000CDB7DEB79B838A83198223C080918500E7
:1001C000882F90E0EA81FB812081FC01E953FF4FF9
:1001D00020838A819B8101969B838A8380918500FD
:1001E0008F5F809385008091C4008F5F8093C400EF
:1001F00089818F5F8983809185008C3310F0109204
:100200008500EA81FB818081882319F089818C3304
:10021000A8F2EBE2F0E08081882311F00E948700D1
:100220000F900F900F90CF91DF910895DF93CF93B0
:100230000F92CDB7DEB7898380918500882F90E03B
:10024000FC01E953FF4F89818083809185008F5F96
:10025000809385008091C4008F5F8093C40080915B
:1002600085008C3310F010928500EBE2F0E0808185
:10027000882311F00E9487000F90CF91DF9108959D
:10028000DF93CF930F92CDB7DEB719828091C30071
:100290008823D1F080918600882F90E0FC01E957F7
:1002A000FF4F80818983809186008F5F80938600D5
:1002B000809186008C3310F0109286008091C300EC
:1002C00081508093C30004C0109286001092C50034
:1002D00089810F90CF91DF910895DF93CF93CDB7B0
:1002E000DEB78091C300CF91DF910895DF93CF9364
:1002F000CDB7DEB78091C400CF91DF9108951F92F2
:100300000F920FB60F9211242F933F934F935F9349
:100310006F937F938F939F93AF93BF93EF93FF93CD
:10032000DF93CF93CDB7DEB70E948700CF91DF91E7
:10033000FF91EF91BF91AF919F918F917F916F91BD
:100340005F914F913F912F910F900FBE0F901F9093
:1003500018951F920F920FB60F9211242F933F936F
:100360004F935F936F937F938F939F93AF93BF93BD
:10037000EF93FF93DF93CF93CDB7DEB70E94B20028
:10038000CF91DF91FF91EF91BF91AF919F918F91AD
:100390007F916F915F914F913F912F910F900FBE81
:1003A0000F901F901895DF93CF9300D0CDB7DEB795
:1003B0009A8389838EEF0E94160186E690E00E9460
:1003C000D40089819A810E94D4008FEF0E94160187
:1003D0000F900F90CF91DF910895DF93CF9300D0CE
:1003E000CDB7DEB79A8389838EEF0E9416018EE621
:1003F00090E00E94D40089819A810E94D4008FEFFE
:100400000E9416010F900F90CF91DF910895DF9316
:10041000CF9300D0CDB7DEB70E946D01882309F4D9
:1004200081C00E9440018093840080918000282F29
:1004300030E03A83298389819A818230910509F4D9
:100440004BC029813A812330310554F489819A8146
:10045000009799F029813A812130310519F160C066
:1004600089819A818330910509F44AC029813A81B2
:100470002430310509F44BC053C080918400813F82
:1004800029F080918400803F09F04CC08091840065
:100490000E941601809184008093810081E0809306
:1004A000800040C09091820080918400981741F0B4
:1004B00080918400882321F486E790E00E94D30194
:1004C0008091840080938200809184000E941601B4
:1004D00082E08093800026C0809184008093830016
:1004E000809184000E94160180918100813F21F457
:1004F00084E08093800016C083E08093800012C067
:1005000010928000E8E3F0E085E580830BC0109254
:100510008000E8E3F0E0809183008095808302C052
:10052000109280000F900F90CF91DF910895DF938C
:10053000CF93CDB7DEB7E7E3F0E08FEF8083789419
:100540000E946F00CF91DF910895DF93CF9300D089
:10055000CDB7DEB780E197E29A838983EFE4F0E0DC
:1005600082EA8083EEE4F0E08AE18083E9E5F0E06E
:1005700084E08083E7E4F0E089819A81892F9927DC
:100580008083E6E4F0E089818083EAE4F0E0118290
:100590001082E8E4F0E0118210820F900F90CF916A
:1005A000DF910895DF93CF930F92CDB7DEB78983A4
:1005B0000F90CF91DF910895DF93CF93CDB7DEB742
:1005C000CF91DF9108951F920F920FB60F921124D1
:1005D0002F933F934F935F936F937F938F939F934B
:1005E000AF93BF93EF93FF93DF93CF93CDB7DEB776
:1005F0000E94DC02CF91DF91FF91EF91BF91AF910B
:100600009F918F917F916F915F914F913F912F912A
:0E0610000F900FBE0F901F901895F894FFCF1B
:10061E0052657365740044656275673A2000526FC7
:10062E00626F743A2000766974657373653D3000AD
:00000001FF
