:100000000C942A000C9447000C9447000C94470071
:100010000C9447000C9447000C9447000C94470044
:100020000C9447000C9447000C9447000C94470034
:100030000C9447000C94A3010C9447000C94790194
:100040000C9447000C9447000C9447000C94470014
:100050000C94470011241FBECFE5D8E0DEBFCDBF12
:1000600010E0A0E6B0E0E0EEF4E002C005900D92F2
:10007000AA37B107D9F710E0AAE7B0E001C01D9296
:10008000AD3FB107E1F70E9449000C946E020C9459
:100090000000DF93CF93CDB7DEB70E94600280E609
:1000A00090E00E94CD010E94E301FDCFDF93CF934A
:1000B000CDB7DEB71092BE0010927F0010927E0086
:1000C0001092BF001092BD001092BC00CF91DF9142
:1000D0000895DF93CF93CDB7DEB7E0E4F0E086E894
:1000E0008083EAE2F0E088ED8083E0E4F0E01082D3
:1000F000E9E2F0E087E680830E945600CF91DF912D
:100100000895DF93CF93CDB7DEB78091BD008823EC
:10011000E1F0ACE2B0E08091BF00882F90E0FC01FC
:10012000E054FF4F80818C938091BF008F5F80935C
:10013000BF008091BD0081508093BD008091BF00C1
:100140008C3338F01092BF0004C01092BF001092A0
:100150007E00CF91DF910895DF93CF93CDB7DEB7C7
:100160008091BE00882F90E0ECE2F0E02081FC015D
:10017000E058FF4F20838091BE008F5F8093BE00C8
:100180008091BC008F5F8093BC008091BE008C3357
:1001900010F01092BE00CF91DF910895DF93CF93BE
:1001A00000D00F92CDB7DEB79B838A83198223C01C
:1001B00080917E00882F90E0EA81FB812081FC0104
:1001C000E054FF4F20838A819B8101969B838A8321
:1001D00080917E008F5F80937E008091BD008F5F55
:1001E0008093BD0089818F5F898380917E008C33ED
:1001F00010F010927E00EA81FB818081882319F043
:1002000089818C33A8F2EBE2F0E08081882311F041
:100210000E9481000F900F900F90CF91DF91089571
:10022000DF93CF930F92CDB7DEB7898380917E00A5
:10023000882F90E0FC01E054FF4F898180838091FA
:100240007E008F5F80937E008091BD008F5F8093E2
:10025000BD0080917E008C3310F010927E00EBE2A6
:10026000F0E08081882311F00E9481000F90CF91EF
:10027000DF910895DF93CF930F92CDB7DEB7198248
:100280008091BC008823D1F080917F00882F90E07E
:10029000FC01E058FF4F8081898380917F008F5F50
:1002A00080937F0080917F008C3310F010927F004C
:1002B0008091BC0081508093BC0004C010927F00EC
:1002C0001092BE0089810F90CF91DF910895DF9346
:1002D000CF93CDB7DEB78091BC00CF91DF91089569
:1002E000DF93CF93CDB7DEB78091BD00CF91DF9183
:1002F00008951F920F920FB60F9211242F933F93E0
:100300004F935F936F937F938F939F93AF93BF931D
:10031000EF93FF93DF93CF93CDB7DEB70E948100B9
:10032000CF91DF91FF91EF91BF91AF919F918F910D
:100330007F916F915F914F913F912F910F900FBEE1
:100340000F901F9018951F920F920FB60F921124C5
:100350002F933F934F935F936F937F938F939F93CD
:10036000AF93BF93EF93FF93DF93CF93CDB7DEB7F8
:100370000E94AC00CF91DF91FF91EF91BF91AF91BF
:100380009F918F917F916F915F914F913F912F91AD
:100390000F900FBE0F901F901895DF93CF9300D052
:1003A000CDB7DEB79A8389838EEF0E9410018981D1
:1003B0009A810E94CE008FEF0E9410010F900F9043
:1003C000CF91DF910895DF93CF9300D0CDB7DEB703
:1003D0000E946701882309F46EC00E943A0180934D
:1003E000FC0080917A00282F30E03A8329838981AC
:1003F0009A818130910559F129813A812230310564
:100400002CF489819A81009769F053C029813A813F
:1004100022303105B1F189819A818330910509F447
:1004200041C047C08091FC00813F29F08091FC00D1
:10043000803F09F040C08091FC000E941001809133
:10044000FC0080937B0081E080937A0034C090911F
:100450007C008091FC00981741F08091FC0088237B
:1004600021F489E690E00E94CD018091FC00809308
:100470007C008091FC000E94100182E080937A0051
:100480001AC08091FC0080937D008091FC000E9446
:10049000100110927A00E8E3F0E080917D008095F1
:1004A000808309C010927A0083E790E00E94CD011A
:1004B00002C010927A000F900F90CF91DF910895B3
:1004C000DF93CF93CDB7DEB7E7E3F0E08FEF808324
:1004D00078940E946900CF91DF910895F894FFCF3E
:1004E00052657365742121210076697465737365A3
:0A04F0003D30006172726574000077
:00000001FF
