:100000000C942A000C9447000C9447000C94470071
:100010000C9447000C9447000C9447000C94470044
:100020000C9447000C943B030C9447000C9447003D
:100030000C9447000C94B1010C9447000C94870178
:100040000C9447000C9447000C9447000C94470014
:100050000C94470011241FBECFE5D8E0DEBFCDBF12
:1000600011E0A0E6B0E0E6E7F7E202C005900D92ED
:10007000AA39B107D9F712E0AAE9B1E001C01D928F
:10008000A036B107E1F70E9449000C94B9130C9413
:100090000000DF93CF930F92CDB7DEB7F8940E94A4
:1000A000E6020E94F70280E690E00E9441028FEF94
:1000B000898389818E7F8983E8E3F0E08981808369
:1000C00078940E945B02FDCFDF93CF93CDB7DEB76C
:1000D000109220021092E1011092E0011092210290
:1000E00010921F0210921E02CF91DF910895DF93AC
:1000F000CF93CDB7DEB7E0E4F0E086E88083EAE2B4
:10010000F0E088ED8083E0E4F0E01082E9E2F0E0E6
:1001100087E680830E946400CF91DF910895DF938A
:10012000CF93CDB7DEB780911F028823E1F0ACE218
:10013000B0E080912102882F90E0FC01EE5DFD4F40
:1001400080818C93809121028F5F80932102809126
:100150001F02815080931F02809121028C3338F05E
:100160001092210204C0109221021092E001CF915E
:10017000DF910895DF93CF93CDB7DEB78091200252
:10018000882F90E0ECE2F0E02081FC01EE51FE4F80
:100190002083809120028F5F8093200280911E0235
:1001A0008F5F80931E02809120028C3310F010929A
:1001B0002002CF91DF910895DF93CF9300D00F926B
:1001C000CDB7DEB79B838A83198223C08091E0017B
:1001D000882F90E0EA81FB812081FC01EE5DFD4FDC
:1001E00020838A819B8101969B838A838091E00191
:1001F0008F5F8093E00180911F028F5F80931F02C9
:1002000089818F5F89838091E0018C3310F0109297
:10021000E001EA81FB818081882319F089818C3398
:10022000A8F2EBE2F0E08081882311F00E948F00B9
:100230000F900F900F90CF91DF910895DF93CF93A0
:100240000F92CDB7DEB789838091E001882F90E0CF
:10025000FC01EE5DFD4F898180838091E0018F5F1D
:100260008093E00180911F028F5F80931F02809135
:10027000E0018C3310F01092E001EBE2F0E08081BD
:10028000882311F00E948F000F90CF91DF91089585
:10029000DF93CF930F92CDB7DEB7198280911E0204
:1002A0008823D1F08091E101882F90E0FC01EE518C
:1002B000FE4F808189838091E1018F5F8093E1010E
:1002C0008091E1018C3310F01092E10180911E02C7
:1002D000815080931E0204C01092E101109220020E
:1002E00089810F90CF91DF910895DF93CF93CDB7A0
:1002F000DEB780911E02CF91DF910895DF93CF93F7
:10030000CDB7DEB780911F02CF91DF9108951F9284
:100310000F920FB60F9211242F933F934F935F9339
:100320006F937F938F939F93AF93BF93EF93FF93BD
:10033000DF93CF93CDB7DEB70E948F00CF91DF91CF
:10034000FF91EF91BF91AF919F918F917F916F91AD
:100350005F914F913F912F910F900FBE0F901F9083
:1003600018951F920F920FB60F9211242F933F935F
:100370004F935F936F937F938F939F93AF93BF93AD
:10038000EF93FF93DF93CF93CDB7DEB70E94BA0010
:10039000CF91DF91FF91EF91BF91AF919F918F919D
:1003A0007F916F915F914F913F912F910F900FBE71
:1003B0000F901F901895DF93CF9300D0CDB7DEB785
:1003C0009A8389838EEF0E941E0186E690E00E9448
:1003D000DC0089819A810E94DC008FEF0E941E015F
:1003E0000F900F90CF91DF910895DF93CF93CDB70A
:1003F000DEB728970FB6F894DEBF0FBECDBF988743
:100400008F8385E0FE013296DF01982F1D929A9529
:10041000E9F784E089831EC08981815089838981BD
:10042000E82FF0E08F8198852AE030E0B9010E9442
:100430006E13282F205DCE010296E80FF91F20834E
:100440008F8198852AE030E0B9010E946E13CB01BC
:1004500098878F838F8198850097F1F61E82898116
:10046000282F30E0CE010296820F931F0E94DB01FD
:1004700028960FB6F894DEBF0FBECDBFCF91DF91A7
:100480000895DF93CF9300D0CDB7DEB79A838983E9
:100490008EEF0E941E018EE690E00E94DC008981B2
:1004A0009A810E94DC008FEF0E941E010F900F9036
:1004B000CF91DF910895DF93CF9300D000D0CDB7D7
:1004C000DEB70E947501882309F479C00E944801B3
:1004D00080939E0180919A01282F30E03C832B83EA
:1004E0008B819C818230910509F441C02B813C8134
:1004F0002330310554F48B819C81009799F02B8136
:100500003C812130310519F158C08B819C818330A9
:10051000910509F440C02B813C812430310509F458
:1005200043C04BC080919E01813F29F080919E0184
:10053000803F09F044C080919E010E941E0180917D
:100540009E0180939B0181E080939A0138C0309195
:100550009C0180919E0180919E0180939C018091DD
:100560009E010E941E0182E080939A0128C0809122
:100570009E0180939D0180919E010E941E018091A9
:100580009B01813F21F484E080939A0118C083E0AD
:1005900080939A0114C010929A0180919C0160E0AE
:1005A00042E00E94CC080BC010929A0180919C01FD
:1005B00060E040E00E94CC0802C010929A010F90C7
:1005C0000F900F900F90CF91DF910895DF93CF930D
:1005D000CDB7DEB7E7E3F0E08FEF8083E1E3F0E053
:1005E0008EEF80830E947700CF91DF910895DF9393
:1005F000CF93CDB7DEB7EFE4F0E082EA8083EEE49C
:10060000F0E08AE18083E9E5F0E084E08083E6E4DD
:10061000F0E080E197E291838083EAE4F0E01182E8
:100620001082E8E4F0E011821082CF91DF9108950A
:10063000DF93CF9300D000D00F92CDB7DEB79A836F
:1006400089837C836B834D8389819A819093A001F8
:1006500080939F018B819C819093A2018093A10143
:100660008D8180935E020F900F900F900F900F90EE
:10067000CF91DF9108951F920F920FB60F92112420
:100680008F939F93EF93FF93DF93CF93CDB7DEB715
:10069000EAE4F0E080919F019091A0019183808332
:1006A000E8E4F0E08091A1019091A2019183808320
:1006B00080915E02806180935E0280915E02806222
:1006C00080935E02E2E3F0E080915E028083CF914E
:1006D000DF91FF91EF919F918F910F900FBE0F903F
:1006E0001F9018958F929F92AF92BF92CF92DF92F8
:1006F000EF92FF920F931F93DF93CF93CDB7DEB7A7
:10070000C655D0400FB6F894DEBF0FBECDBF69838B
:100710007A838B839C832D833E834F835887E9861E
:10072000FA860B871C87AD86BE86CF86D88A9A8AC2
:10073000898A69857A858B859C8520E030E040E850
:100740005FE30E948E0F18165CF480E090E0A0E852
:10075000BFE367968CAF9DAFAEAFBFAF67972DC0BD
:1007600069857A858B859C8520E030E040E85FEBE9
:100770000E94EE0F88235CF480E090E0A0E8BFEBDD
:1007800063968CAF9DAFAEAFBFAF63970AC089854C
:100790009A85AB85BC8563968CAF9DAFAEAFBFAF7E
:1007A000639763968CAD9DADAEADBFAD6397679615
:1007B0008CAF9DAFAEAFBFAF679767968CAD9DAD69
:1007C000AEADBFAD679789879A87AB87BC876D85CC
:1007D0007E858F85988920E030E040E85FE30E94C5
:1007E0008E0F18165CF480E090E0A0E8BFE32F962F
:1007F0008CAF9DAFAEAFBFAF2F972DC06D857E85FF
:100800008F85988920E030E040E85FEB0E94EE0F92
:1008100088235CF480E090E0A0E8BFEB2B968CAFDF
:100820009DAFAEAFBFAF2B970AC08D859E85AF85BC
:10083000B8892B968CAF9DAFAEAFBFAF2B972B96E1
:100840008CAD9DADAEADBFAD2B972F968CAF9DAF50
:10085000AEAFBFAF2F972F968CAD9DADAEADBFADF8
:100860002F978D879E87AF87B88B8091D401909109
:10087000D501A091D601B091D7018093D00190937A
:10088000D101A093D201B093D3016D857E858F8570
:10089000988929853A854B855C850E948A0DDC0103
:1008A000CB01BC01CD012AE132E646E850E40E94CA
:1008B000E80DDC01CB018093D4019093D501A09386
:1008C000D601B093D7016D857E858F85988929855E
:1008D0003A854B855C850E94BB0DDC01CB01BC01D8
:1008E000CD0120E030E040E05FE30E94E80DDC0154
:1008F000CB018093CC019093CD01A093CE01B09316
:10090000CF018091D4019091D501A091D601B091F1
:10091000D7012091D0013091D1014091D201509165
:10092000D301BC01CD010E94BB0DDC01CB01BC0198
:10093000CD012AE037ED43E25BE30E94E80DDC01E4
:10094000CB012091DC013091DD014091DE0150911D
:10095000DF01BC01CD010E94BB0DDC01CB01809306
:10096000DC019093DD01A093DE01B093DF01809163
:10097000DC019091DD01A091DE01B091DF01BC01AD
:10098000CD012BED3FE049EC50E40E948E0F18168C
:10099000CCF48091DC019091DD01A091DE01B09159
:1009A000DF01BC01CD012BED3FE049EC50E40E949A
:1009B0008A0DDC01CB0127968CAF9DAFAEAFBFAFE8
:1009C000279745C08091DC019091DD01A091DE0167
:1009D000B091DF01BC01CD0120E030E040E050E00B
:1009E0000E94EE0F8823CCF48091DC019091DD0110
:1009F000A091DE01B091DF01BC01CD012BED3FE004
:100A000049EC50E40E94BB0DDC01CB0123968CAF76
:100A10009DAFAEAFBFAF23970EC08091DC01909128
:100A2000DD01A091DE01B091DF0123968CAF9DAF77
:100A3000AEAFBFAF239723968CAD9DADAEADBFAD2E
:100A4000239727968CAF9DAFAEAFBFAF2797279662
:100A50008CAD9DADAEADBFAD27978093DC0190937B
:100A6000DD01A093DE01B093DF018091DC01909164
:100A7000DD01A091DE01B091DF01BC01CD012BEDC4
:100A80003FE049E450E40E94BB0DDC01CB01BC0116
:100A9000CD012D813E814F8158850E941E10181670
:100AA0008CF06D817E818F8198852BED3FE049EC44
:100AB00050E40E948A0DDC01CB018BAF9CAFADAF3F
:100AC000BEAF3DC08091DC019091DD01A091DE01BF
:100AD000B091DF01BC01CD012BED3FE049E450E4D2
:100AE0000E948A0DDC01CB01BC01CD012D813E812C
:100AF0004F8158850E94BE0F88238CF06D817E81C6
:100B00008F8198852BED3FE049EC50E40E94BB0DAE
:100B1000DC01CB018FAB98AFA9AFBAAF08C08D8114
:100B20009E81AF81B8858FAB98AFA9AFBAAF8FA9BF
:100B300098ADA9ADBAAD8BAF9CAFADAFBEAF2091B4
:100B4000DC013091DD014091DE015091DF016BADA0
:100B50007CAD8DAD9EAD0E948A0DDC01CB018093F2
:100B6000D8019093D901A093DA01B093DB01809171
:100B7000CC019091CD01A091CE01B091CF01BC01EB
:100B8000CD0128EE31EB49E750EC0E94E80DDC0185
:100B9000CB017C018D0169817A818B819C8124EF5D
:100BA00038ED4CE950E40E94E80DDC01CB019C01DA
:100BB000AD01C801B7010E94BB0DDC01CB018093E0
:100BC000C8019093C901A093CA01B093CB01809151
:100BD000D8019091D901A091DA01B091DB01BC015B
:100BE000CD0121E237EA44E95FE30E94E80DDC0130
:100BF000CB017C018D018091D4019091D501A09110
:100C0000D601B091D701BC01CD0128E137EA44E11A
:100C10005FEB0E94E80DDC01CB019C01AD01C80136
:100C2000B7010E94BB0DDC01CB018093C4019093FE
:100C3000C501A093C601B093C7018091C4019091F2
:100C4000C501A091C601B091C701BC01CD0120E052
:100C500030E040E050E00E94BE0F88232CF0A1E07D
:100C6000B0E0BEABADAB04C08FEF9FEF9EAB8DABE2
:100C7000ADA9BEA9B093C301A093C2018091C801E0
:100C80009091C901A091CA01B091CB01BC01CD01E5
:100C900020E030E040E050E00E94BE0F88232CF0BE
:100CA00081E090E09CAB8BAB04C0AFEFBFEFBCAB7F
:100CB000ABAB8BA99CA99093C1018093C00180919B
:100CC000C2019091C301AA2797FDA095BA2FBC013C
:100CD000CD010E944E10DC01CB012091C401309166
:100CE000C5014091C6015091C701BC01CD010E94D0
:100CF000E80DDC01CB01BC01CD0120E030E040E893
:100D00005FE30E948E0F18168CF48091C2019091BF
:100D1000C301AA2797FDA095BA2FBC01CD010E945F
:100D20004E106FA778AB89AB9AAB43C08091C201DC
:100D30009091C301AA2797FDA095BA2FBC01CD01C0
:100D40000E944E10DC01CB012091C4013091C501FD
:100D50004091C6015091C701BC01CD010E94E80D30
:100D6000DC01CB01BC01CD012DEC3CEC4CE45DE39E
:100D70000E941E1018164CF080E090E0A0E0B0E059
:100D80008BA79CA7ADA7BEA70CC08091C401909172
:100D9000C501A091C601B091C7018BA79CA7ADA7C3
:100DA000BEA78BA59CA5ADA5BEA58FA798ABA9ABEB
:100DB000BAAB8FA598A9A9A9BAA98093C4019093A9
:100DC000C501A093C601B093C7018091C001909165
:100DD000C101AA2797FDA095BA2FBC01CD010E94A1
:100DE0004E10DC01CB012091C8013091C901409126
:100DF000CA015091CB01BC01CD010E94E80DDC017C
:100E0000CB01BC01CD0120E030E040E85FE30E946F
:100E10008E0F18168CF48091C0019091C101AA2701
:100E200097FDA095BA2FBC01CD010E944E106FA373
:100E300078A789A79AA70CC08091C8019091C90191
:100E4000A091CA01B091CB018FA398A7A9A7BAA777
:100E50008FA198A5A9A5BAA58093C8019093C901AF
:100E6000A093CA01B093CB018091C0019091C101C0
:100E7000AA2797FDA095BA2FBC01CD010E944E1064
:100E8000DC01CB012091C8013091C9014091CA0118
:100E90005091CB01BC01CD010E94E80DDC01CB01DA
:100EA0007C018D018091C2019091C301AA2797FD19
:100EB000A095BA2FBC01CD010E944E10DC01CB01E0
:100EC0002091C4013091C5014091C6015091C701E4
:100ED000BC01CD010E94E80DDC01CB019C01AD01FC
:100EE00060E070E080E89FE30E948A0DDC01CB01A6
:100EF0009C01AD01C801B7010E948E0F18160CF0BD
:100F000041C08091C0019091C101AA2797FDA09591
:100F1000BA2FBC01CD010E944E107B018C01809143
:100F2000C2019091C301AA2797FDA095BA2FBC01D9
:100F3000CD010E944E10DC01CB012091C401309103
:100F4000C5014091C6015091C701BC01CD010E946D
:100F5000E80DDC01CB019C01AD0160E070E080E8B0
:100F60009FE30E948A0DDC01CB019C01AD01C80109
:100F7000B7010E94E80DDC01CB018BA39CA3ADA3BC
:100F8000BEA30CC08091C8019091C901A091CA0173
:100F9000B091CB018BA39CA3ADA3BEA38BA19CA1BD
:100FA000ADA1BEA18093C8019093C901A093CA01CD
:100FB000B093CB018091C8019091C901A091CA0161
:100FC000B091CB012091C4013091C5014091C6017F
:100FD0005091C701BC01CD010E94BB0DDC01CB01CA
:100FE000A796EEADFFADA79780839183A283B383CD
:100FF0008091C8019091C901A091CA01B091CB0123
:101000002091C4013091C5014091C6015091C701A2
:10101000BC01CD010E948A0DDC01CB01E989FA896E
:1010200080839183A283B383A796EEADFFADA7978C
:1010300080819181A281B381BC01CD0124EA30E796
:101040004DE75FE30E948E0F18164CF484EA90E798
:10105000ADE7BFE38F8F98A3A9A3BAA32FC0A7962C
:10106000EEADFFADA79780819181A281B381BC01D4
:10107000CD0124EA30E74DE75FEB0E94EE0F8823B5
:101080004CF484EA90E7ADE7BFEB8B8F9C8FAD8F7C
:10109000BE8F0CC0A796EEADFFADA7978081918162
:1010A000A281B3818B8F9C8FAD8FBE8F8B8D9C8DDA
:1010B000AD8DBE8D8F8F98A3A9A3BAA3A796EEADD1
:1010C000FFADA7978F8D98A1A9A1BAA18083918325
:1010D000A283B383E989FA8980819181A281B38156
:1010E000BC01CD0124EA30E74DE75FE30E948E0F9B
:1010F00018164CF484EA90E7ADE7BFE38F8B988F26
:10110000A98FBA8F2BC0E989FA8980819181A28148
:10111000B381BC01CD0124EA30E74DE75FEB0E94CB
:10112000EE0F88234CF484EA90E7ADE7BFEB8B8B9E
:101130009C8BAD8BBE8B0AC0E989FA898081918135
:10114000A281B3818B8B9C8BAD8BBE8B8B899C8951
:10115000AD89BE898F8B988FA98FBA8FE989FA895B
:101160008F89988DA98DBA8D80839183A283B38353
:10117000CA5ADF4F0FB6F894DEBF0FBECDBFCF9176
:10118000DF911F910F91FF90EF90DF90CF90BF9074
:10119000AF909F908F9008958F929F92AF92BF9241
:1011A000CF92DF92EF92FF920F931F93DF93CF9333
:1011B000CDB7DEB728970FB6F894DEBF0FBECDBF10
:1011C0008D836E834F838D81893C18F48E81853B9E
:1011D00038F088E790E00E94DB0181E088877EC1DB
:1011E0008F818823C9F18F81882F90E0813091050C
:1011F000A9F480915F028B7F80935F0280915F02F0
:10120000877F80935F0280915F028F7B80935F0274
:1012100080915F028F7780935F0214C080915F029C
:10122000846080935F0280915F02886080935F0298
:1012300080915F02806480935F0280915F0280688A
:1012400080935F0220915F0280E090E060E070E0B8
:10125000422F0E94180341C19091A3018D818917EB
:1012600031F49091A4018E81891709F436C19091CF
:10127000A3018D81891709F18D81882F90E0845613
:101280009040AA2797FDA095BA2FBC01CD010E94DE
:101290004E10DC01CB01BC01CD0120E030E048EC78
:1012A00052E40E94E20EDC01CB018093A8019093EE
:1012B000A901A093AA01B093AB019091A4018E81E2
:1012C000891759F18E81882F90E0880F991FAA27DE
:1012D00097FDA095BA2FBC01CD010E944E10DC01F4
:1012E000CB01BC01CD012BED3FE049E450E40E946D
:1012F000E80DDC01CB01BC01CD0120E030E044E38E
:1013000053E40E94E20EDC01CB018093AC01909388
:10131000AD01A093AE01B093AF012091A80130912F
:10132000A9014091AA015091AB01E090A801F09071
:10133000A9010091AA011091AB01A090A801B09061
:10134000A901C090AA01D090AB0100D0EDB7FEB7C3
:101350003196A8EBB1E08CEB91E091838083CA01D8
:10136000B90120E030E040E050E04D010E947203FE
:101370000F900F908091B8019091B901A091BA019E
:10138000B091BB01BC01CD0120E030E040E050E075
:101390000E94EE0F8823E4F480915F028B7F80939C
:1013A0005F0280915F02886080935F028091B80144
:1013B0009091B901A091BA01B091BB01B05880934E
:1013C000B8019093B901A093BA01B093BB010AC0D0
:1013D00080915F02846080935F0280915F02877FCB
:1013E00080935F028091BC019091BD01A091BE01EC
:1013F000B091BF01BC01CD0120E030E040E050E001
:101400000E94EE0F8823E4F480915F028F7B80932B
:101410005F0280915F02806880935F028091BC01CF
:101420009091BD01A091BE01B091BF01B0588093D1
:10143000BC019093BD01A093BE01B093BF010AC04F
:1014400080915F02806480935F0280915F028F775A
:1014500080935F028091BC019091BD01A091BE017B
:10146000B091BF01BC01CD0120E030E44CE156E475
:101470000E94E80DDC01CB01BC01CD010E94120CE1
:10148000DC01CB019C838B838091BC019091BD01D9
:10149000A091BE01B091BF01BC01CD0120E030E4BC
:1014A0004CE156E40E94E80DDC01CB01BC01CD010A
:1014B0000E94120CDC01CB019A83898340915F0268
:1014C0008B819C8129813A81B9010E9418038D8109
:1014D0008093A3018E818093A40118868885289625
:1014E0000FB6F894DEBF0FBECDBFCF91DF911F9135
:1014F0000F91FF90EF90DF90CF90BF90AF909F90B3
:101500008F9008956F927F928F929F92AF92BF9229
:10151000CF92DF92EF92FF920F931F93DF93CF93BF
:1015200000D000D000D0CDB7DEB79C838B837E8304
:101530006D838091A501282F30E08B819C81281735
:10154000390751F48091A601282F30E08D819E81CA
:101550002817390709F451C18091A701882309F0A0
:101560004CC18091A501282F30E08B819C812817E8
:10157000390739F18B819C81CC01A0E0B0E0BC013E
:10158000CD010E940011DC01CB01BC01CD0120E0A6
:1015900030E84FEF53E40E948A0DDC01CB01BC011F
:1015A000CD0120E030E84FEF53E40E94E20EDC0171
:1015B000CB018093B0019093B101A093B201B0939D
:1015C000B3018091A601282F30E08D819E812817DC
:1015D000390739F18D819E81CC01A0E0B0E0BC01DA
:1015E000CD010E940011DC01CB01BC01CD0120E046
:1015F00030E84FEF53E40E948A0DDC01CB01BC01BF
:10160000CD0120E030E84FEF53E40E94E20EDC0110
:10161000CB018093B4019093B501A093B601B09330
:10162000B7012091A8013091A9014091AA015091E0
:10163000AB01E090AC01F090AD010091AE011091D2
:10164000AF01A090B001B090B101C090B201D090B4
:10165000B3016090B4017090B5018090B601909094
:10166000B70100D0EDB7FEB73196A8EBB1E08CEB37
:1016700091E091838083CA01B901A8019701860195
:101680007501640153014D010E9472030F900F9088
:101690008091B8019091B901A091BA01B091BB01BC
:1016A000BC01CD0120E030E040E050E00E94EE0FB0
:1016B0008823E4F480915F028B7F80935F028091A6
:1016C0005F02886080935F028091B8019091B901B8
:1016D000A091BA01B091BB01B0588093B80190932A
:1016E000B901A093BA01B093BB010AC080915F0217
:1016F000846080935F0280915F02877F80935F02A6
:101700008091BC019091BD01A091BE01B091BF013B
:10171000BC01CD0120E030E040E050E00E94EE0F3F
:101720008823E4F480915F028F7B80935F02809135
:101730005F02806880935F028091BC019091BD013F
:10174000A091BE01B091BF01B0588093BC019093AD
:10175000BD01A093BE01B093BF010AC080915F029A
:10176000806480935F0280915F028F7780935F0235
:101770008091BC019091BD01A091BE01B091BF01CB
:10178000BC01CD0120E030E04FE753E40E94E80DBA
:10179000DC01CB01BC01CD010E94120CDC01CB01AC
:1017A0008A838091BC019091BD01A091BE01B0914E
:1017B000BF01BC01CD0120E030E04FE753E40E94BF
:1017C000E80DDC01CB01BC01CD010E94120CDC0153
:1017D000CB0189838A81482F50E08981282F30E00E
:1017E000E0915F02CA01B9014E2F0E9418038B815C
:1017F0008093A5018D818093A60126960FB6F8945B
:10180000DEBF0FBECDBFCF91DF911F910F91FF9033
:10181000EF90DF90CF90BF90AF909F908F907F9090
:101820006F900895EF92FF920F931F937B018C01AD
:1018300020E030E040E05FE40E94BE0F88238CF09F
:10184000C801B70120E030E040E05FE40E948A0D6B
:101850000E94AC109B01AC012050304040405048E9
:1018600006C0C801B7010E94AC109B01AC01B901D0
:10187000CA011F910F91FF90EF900895A0E0B0E092
:10188000E4E4FCE00C948213DC012B01FA019C914E
:10189000923008F439C1EB018881823008F433C1F9
:1018A000943069F4843009F02FC111969C911197FE
:1018B0008981981709F428C1A2E9B0E025C18430D4
:1018C00009F421C18230A9F4923009F01DC19A01B6
:1018D000AD0188E0EA010990AE01E90109929E019B
:1018E0008150C1F7E201898111969C9189238183FE
:1018F00008C1923009F407C112962D903C901397BD
:10190000EB018A819B811496AD90BD90CD90DC90C7
:101910001797EC80FD800E811F819101281B390BE8
:10192000B90137FF04C066277727621B730B60324B
:1019300071050CF061C0121613066CF537014801F1
:10194000062E04C096948794779467940A94D2F7ED
:1019500021E030E040E050E004C0220F331F441F7C
:10196000551F6A95D2F721503040404050402E21FB
:101970003F2140235123211531054105510521F017
:1019800021E030E040E050E079018A01E628F728C4
:10199000082919293CC0232BD1F1260E371E350109
:1019A0004601062E04C096948794779467940A940F
:1019B000D2F721E030E040E050E004C0220F331FB6
:1019C000441F551F6A95D2F7215030404040504087
:1019D0002A213B214C215D2121153105410551056D
:1019E00021F021E030E040E050E059016A01A628F2
:1019F000B728C828D9280BC0821593052CF01C01E4
:101A0000AA24BB24650103C0EE24FF24870111969C
:101A10009C91D20111968C91981709F445C0992395
:101A200039F0A80197012A193B094C095D0906C044
:101A3000A60195012E193F09400B510B57FD08C017
:101A400011823382228224833583468357831DC0CB
:101A500081E081833382228288279927DC01821BDF
:101A6000930BA40BB50B84839583A683B7830DC01A
:101A7000220F331F441F551F24833583468357830A
:101A8000828193810197938382832481358146816A
:101A90005781DA01C9010197A109B1098F5F9F4FF1
:101AA000AF4FBF4328F30BC0918333822282EA0CED
:101AB000FB1C0C1D1D1DE482F5820683178383E049
:101AC0008083248135814681578157FF1AC0C9011F
:101AD000AA2797FDA095BA2F81709070A070B07062
:101AE0005695479537952795822B932BA42BB52B8D
:101AF00084839583A683B7838281938101969383A0
:101B00008283DF0101C0D201CD01CDB7DEB7E2E1B2
:101B10000C949E13A0E2B0E0E0E9FDE00C948E137B
:101B200069837A838B839C832D833E834F8358877D
:101B3000E9E0EE2EF12CEC0EFD1ECE010196B70170
:101B40000E949D128E010F5E1F4FCE010596B801B7
:101B50000E949D128A8991E089278A8BC701B8016A
:101B6000AE01475E5F4F0E943E0C0E94C811A096D6
:101B7000E6E00C94AA13A0E2B0E0E1ECFDE00C94E6
:101B80008E1369837A838B839C832D833E834F835B
:101B90005887F9E0EF2EF12CEC0EFD1ECE010196D8
:101BA000B7010E949D128E010F5E1F4FCE01059658
:101BB000B8010E949D12C701B801AE01475E5F4F98
:101BC0000E943E0C0E94C811A096E6E00C94AA1355
:101BD000A0E2B0E0EEEEFDE00C94821369837A831C
:101BE0008B839C832D833E834F835887CE01019640
:101BF000BE01675F7F4F0E949D12CE010596BE0118
:101C00006F5E7F4F0E949D129985923088F089897E
:101C10008230C8F0943019F4823051F404C084301A
:101C200029F4923081F482E990E0C6C0923049F400
:101C300020E09A858A89981321E02A87CE010996A7
:101C4000BBC0823049F420E09A858A89981321E04C
:101C50002A8BCE014196B0C02D843E844F84588893
:101C60006D887E888F88988CEE24FF248701AA24B3
:101C7000BB24650140E050E060E070E0E0E0F0E0AF
:101C8000C10181709070892BE9F0E60CF71C081DEA
:101C9000191D9A01AB012A0D3B1D4C1D5D1D80E0F5
:101CA00090E0A0E0B0E0E614F7040805190520F480
:101CB00081E090E0A0E0B0E0BA01A901480F591F0F
:101CC0006A1F7B1FAA0CBB1CCC1CDD1C97FE08C026
:101CD00081E090E0A0E0B0E0A82AB92ACA2ADB2A75
:101CE0003196E032F10549F0660C771C881C991C8E
:101CF0005694479437942794C3CFFA85EA892B8961
:101D00003C898B859C85280F391F2E5F3F4F17C05C
:101D1000CA0181709070892B61F016950795F79430
:101D2000E79480E090E0A0E0B0E8E82AF92A0A2BE6
:101D30001B2B76956795579547952F5F3F4F77FDFE
:101D4000E7CF0CC0440F551F661F771F17FD41607A
:101D5000EE0CFF1C001F111F21503040403090E05E
:101D6000590790E0690790E4790760F32B8F3C8F67
:101D7000DB01CA018F779070A070B070803491053C
:101D8000A105B10561F447FD0AC0E114F1040105A4
:101D9000110529F0405C5F4F6F4F7F4F40781A8EDE
:101DA000FE1711F081E08A8F4D8F5E8F6F8F78A3C1
:101DB00083E0898FCE0149960E94C811A096E2E186
:101DC0000C949E13A8E1B0E0E8EEFEE00C948A13B8
:101DD00069837A838B839C832D833E834F835887CB
:101DE000B9E0EB2EF12CEC0EFD1ECE010196B701F1
:101DF0000E949D128E010F5E1F4FCE010596B80105
:101E00000E949D122985223008F47EC03989323023
:101E100010F4B8017CC08A859A8989278A87243082
:101E200011F0223031F4231709F06EC062E970E03E
:101E30006EC0343039F41D861E861F86188A1C86B3
:101E40001B8604C0323021F484E08987B7015FC06B
:101E50002B853C858B899C89281B390B3C872B87DC
:101E6000ED84FE840F851889AD88BE88CF88D88C14
:101E7000EA14FB040C051D0540F4EE0CFF1C001FCA
:101E8000111F215030403C872B8720E030E040E09C
:101E900050E080E090E0A0E0B0E460E070E0EA14A0
:101EA000FB040C051D0540F0282B392B4A2B5B2B1E
:101EB000EA18FB080C091D09B695A7959795879513
:101EC000EE0CFF1C001F111F6F5F7F4F6F317105FC
:101ED00031F7DA01C9018F779070A070B07080344B
:101EE0009105A105B10561F427FD0AC0E114F104D3
:101EF0000105110529F0205C3F4F4F4F5F4F2078BF
:101F00002D873E874F87588BBE01675F7F4FCB0180
:101F10000E94C8116896EAE00C94A613A8E1B0E00C
:101F2000E4E9FFE00C948E1369837A838B839C83AE
:101F30002D833E834F83588789E0E82EF12CEC0EE9
:101F4000FD1ECE010196B7010E949D128E010F5E0B
:101F50001F4FCE010596B8010E949D1289858230DF
:101F600040F08989823028F0C701B8010E9415131A
:101F700001C08FEF6896E6E00C94AA13A8E1B0E0E8
:101F8000E4ECFFE00C948E1369837A838B839C834B
:101F90002D833E834F83588789E0E82EF12CEC0E89
:101FA000FD1ECE010196B7010E949D128E010F5EAB
:101FB0001F4FCE010596B8010E949D12898582307F
:101FC00040F08989823028F0C701B8010E941513BA
:101FD00001C08FEF6896E6E00C94AA13A8E1B0E088
:101FE000E4EFFFE00C948E1369837A838B839C83E8
:101FF0002D833E834F83588789E0E82EF12CEC0E29
:10200000FD1ECE010196B7010E949D128E010F5E4A
:102010001F4FCE010596B8010E949D12898582301E
:1020200040F08989823028F0C701B8010E94151359
:1020300001C081E06896E6E00C94AA13A8E1B0E044
:10204000E4E2F0E10C948E1369837A838B839C83A2
:102050002D833E834F83588789E0E82EF12CEC0EC8
:10206000FD1ECE010196B7010E949D128E010F5EEA
:102070001F4FCE010596B8010E949D1289858230BE
:1020800040F08989823028F0C701B8010E941513F9
:1020900001C081E06896E6E00C94AA13A8E0B0E0E5
:1020A000E4E5F0E10C948B139B01AC0183E08983A0
:1020B000DA01C9018827B7FD83959927AA27BB278D
:1020C000B82E211531054105510519F482E08983A7
:1020D0003AC08823A9F0203080E0380780E0480724
:1020E00080E8580729F460E070E080E09FEC30C0A1
:1020F000EE24FF248701E21AF30A040B150B02C039
:1021000079018A018EE1C82ED12CDC82CB82ED824E
:10211000FE820F831887C801B7010E9479110197C9
:102120001816190684F4082E04C0EE0CFF1C001FBC
:10213000111F0A94D2F7ED82FE820F831887C81A06
:10214000D90ADC82CB82BA82CE0101960E94C811E4
:102150002896E9E00C94A713ACE0B0E0E2EBF0E1E4
:102160000C94921369837A838B839C83CE010196AE
:10217000BE016B5F7F4F0E949D128D81823061F1A5
:10218000823050F1843021F48E81882351F12EC0A9
:102190002F81388537FD20C06E812F3131051CF02D
:1021A0006623F9F023C08EE190E0821B930B298512
:1021B0003A854B855C8504C056954795379527959C
:1021C0008A95D2F76623B1F05095409530952195C8
:1021D0003F4F4F4F5F4F0EC020E030E040E050E0F7
:1021E00009C02FEF3FEF4FEF5FE704C020E030E082
:1021F00040E050E8B901CA012C96E2E00C94AE131D
:10220000A8E0B0E0E6E0F1E10C948A137B018C01D8
:10221000611571058105910519F482E0898360C01B
:1022200083E089838EE1C82ED12CDC82CB82ED82C3
:10223000FE820F831887C801B7010E947911FC0143
:102240003197F7FF3BC0222733272E1B3F0B570147
:102250006801022E04C0D694C794B794A7940A9438
:10226000D2F740E050E060E070E081E090E0A0E074
:10227000B0E004C0880F991FAA1FBB1F2A95D2F790
:102280000197A109B1098E219F21A023B1230097B5
:10229000A105B10521F041E050E060E070E04A297D
:1022A0005B296C297D294D835E836F8378878EE15E
:1022B00090E08E1B9F0B9C838B8312C0309781F024
:1022C0000E2E04C0EE0CFF1C001F111F0A94D2F743
:1022D000ED82FE820F831887CE1ADF0ADC82CB8262
:1022E0001A82CE0101960E94C8112896EAE00C9449
:1022F000A613EF92FF920F931F937B018C0180E056
:10230000E81680E0F80681E0080780E0180788F406
:102310008FEFE816F1040105110531F028F088E08F
:1023200090E0A0E0B0E017C080E090E0A0E0B0E076
:1023300012C080E0E81680E0F80680E0080781E03F
:10234000180728F088E190E0A0E0B0E004C080E148
:1023500090E0A0E0B0E020E230E040E050E0281B58
:10236000390B4A0B5B0B04C016950795F794E7945D
:102370008A95D2F7F701E656FF4F8081281B310975
:1023800041095109C9011F910F91FF90EF900895E4
:10239000DF92EF92FF920F931F93FC01E480F58090
:1023A00006811781D1808081823048F480E090E0FE
:1023B000A0E1B0E0E82AF92A0A2B1B2BA5C0843043
:1023C00009F49FC0823021F4EE24FF24870105C068
:1023D000E114F1040105110519F4E0E0F0E096C004
:1023E000628173819FEF623879070CF05BC022E84D
:1023F0003FEF261B370B2A3131052CF020E030E06F
:1024000040E050E02AC0B801A701022E04C0769532
:102410006795579547950A94D2F781E090E0A0E040
:10242000B0E004C0880F991FAA1FBB1F2A95D2F7DE
:102430000197A109B1098E219F21A023B123009703
:10244000A105B10521F081E090E0A0E0B0E09A01A3
:10245000AB01282B392B4A2B5B2BDA01C9018F7773
:102460009070A070B07080349105A105B10539F469
:1024700027FF09C0205C3F4F4F4F5F4F04C0215CD6
:102480003F4F4F4F5F4FE0E0F0E02030A0E03A07D1
:10249000A0E04A07A0E45A0710F0E1E0F0E079017B
:1024A0008A0127C06038710564F5FB01E158FF4FD0
:1024B000D801C7018F779070A070B07080349105FB
:1024C000A105B10539F4E7FE0DC080E490E0A0E07D
:1024D000B0E004C08FE390E0A0E0B0E0E80EF91EA9
:1024E0000A1F1B1F17FF05C016950795F794E79461
:1024F000319687E016950795F794E7948A95D1F77A
:1025000005C0EE24FF248701EFEFF0E06E2F679502
:1025100066276795902F9F77D794DD24D7948E2FC9
:102520008695492F462B582F5D29B701CA011F9167
:102530000F91FF90EF90DF900895FC01DB01408147
:1025400051812281622F6F7770E0221F2227221F84
:102550009381892F880F822B282F30E0991F99278C
:10256000991F11969C93119721153105A9F54115D5
:1025700051056105710511F482E037C082E89FEFD3
:1025800013969C938E9312979A01AB0167E0220FEA
:10259000331F441F551F6A95D1F783E08C930DC0FC
:1025A000220F331F441F551F12968D919C91139734
:1025B000019713969C938E931297203080E03807F2
:1025C00080E0480780E4580758F314962D933D9314
:1025D0004D935C93179708952F3F310579F441157A
:1025E00051056105710519F484E08C93089564FF29
:1025F00003C081E08C9312C01C9210C02F57304052
:1026000013963C932E93129783E08C9387E0440FAC
:10261000551F661F771F8A95D1F7706414964D93E6
:102620005D936D937C93179708951F93DC01FB01D5
:102630009C91923008F447C08081823008F443C0F6
:10264000943051F411961C91843099F58181682F52
:1026500070E0611B71093FC0843021F0923031F489
:102660008230B9F18181882389F12DC011961C91A6
:1026700011978230F1F081811817D9F412962D91BB
:102680003C911397828193818217930794F02817C6
:102690003907BCF014968D919D910D90BC91A02DA1
:1026A0002481358146815781281739074A075B07FE
:1026B00018F4112341F00AC082179307A407B50745
:1026C00040F4112319F061E070E005C06FEF7FEF77
:1026D00002C060E070E0CB011F910895AA1BBB1BF4
:1026E00051E107C0AA1FBB1FA617B70710F0A61B12
:1026F000B70B881F991F5A95A9F780959095BC0133
:10270000CD0108952F923F924F925F926F927F92E8
:102710008F929F92AF92BF92CF92DF92EF92FF92F1
:102720000F931F93CF93DF93CDB7DEB7CA1BDB0B9D
:102730000FB6F894DEBF0FBECDBF09942A88398842
:1027400048885F846E847D848C849B84AA84B98449
:10275000C884DF80EE80FD800C811B81AA81B98155
:10276000CE0FD11D0FB6F894DEBF0FBECDBFED0169
:062770000895F894FFCF6C
:1027760052657365740044656275673A2000526F4E
:10278600626F743A200010274552524F523A205633
:10279600616C7565206F7574206F662072616E6757
:1027A60065000000000000000000000102020303B3
:1027B60003030404040404040404050505050505CF
:1027C60005050505050505050505060606060606AD
:1027D6000606060606060606060606060606060693
:1027E600060606060606060606060707070707077D
:1027F6000707070707070707070707070707070763
:102806000707070707070707070707070707070752
:102816000707070707070707070707070707070742
:10282600070707070707070707070808080808082C
:102836000808080808080808080808080808080812
:102846000808080808080808080808080808080802
:1028560008080808080808080808080808080808F2
:1028660008080808080808080808080808080808E2
:1028760008080808080808080808080808080808D2
:1028860008080808080808080808080808080808C2
:1028960008080808080808080808080808080808B2
:0A28A60008080808080808080808D8
:00000001FF
